{"contracts/batch_transfer.sol":{"One2ManyTransfer":{"abi":[{"inputs":[],"name":"ECDSAInvalidSignature","type":"error"},{"inputs":[{"internalType":"uint256","name":"length","type":"uint256"}],"name":"ECDSAInvalidSignatureLength","type":"error"},{"inputs":[{"internalType":"bytes32","name":"s","type":"bytes32"}],"name":"ECDSAInvalidSignatureS","type":"error"},{"anonymous":false,"inputs":[{"indexed":false,"internalType":"address","name":"to","type":"address"}],"name":"TransferExecuted","type":"event"},{"inputs":[{"components":[{"internalType":"address","name":"to","type":"address"},{"internalType":"uint256","name":"value","type":"uint256"},{"internalType":"bytes","name":"data","type":"bytes"}],"internalType":"struct One2ManyTransfer.Transfer[]","name":"transfers","type":"tuple[]"},{"internalType":"uint8","name":"v","type":"uint8"},{"internalType":"bytes32","name":"r","type":"bytes32"},{"internalType":"bytes32","name":"s","type":"bytes32"}],"name":"execute_batch_transfer","outputs":[],"stateMutability":"nonpayable","type":"function"},{"inputs":[],"name":"nonce","outputs":[{"internalType":"uint256","name":"","type":"uint256"}],"stateMutability":"view","type":"function"}],"evm":{"bytecode":{"linkReferences":{},"object":"608060405234801561001057600080fd5b50610d8a806100206000396000f3fe608060405234801561001057600080fd5b50600436106100365760003560e01c8063ab0133801461003b578063affed0e014610057575b600080fd5b61005560048036038101906100509190610616565b610075565b005b61005f610189565b60405161006c91906106b7565b60405180910390f35b6000858560405160200161008a9291906109ba565b60405160208183030381529060405280519060200120905060006100b08286868661018f565b90503073ffffffffffffffffffffffffffffffffffffffff168173ffffffffffffffffffffffffffffffffffffffff1614610120576040517f08c379a000000000000000000000000000000000000000000000000000000000815260040161011790610a3b565b60405180910390fd5b60008081548092919061013290610a8a565b919050555060005b8787905081101561017f5761017288888381811061015b5761015a610ad2565b5b905060200281019061016d9190610b10565b6101bf565b808060010191505061013a565b5050505050505050565b60005481565b6000806000806101a1888888886102e0565b9250925092506101b182826103d4565b829350505050949350505050565b60008160000160208101906101d49190610b38565b73ffffffffffffffffffffffffffffffffffffffff1682602001358380604001906101ff9190610b65565b60405161020d929190610bf8565b60006040518083038185875af1925050503d806000811461024a576040519150601f19603f3d011682016040523d82523d6000602084013e61024f565b606091505b5050905080610293576040517f08c379a000000000000000000000000000000000000000000000000000000000815260040161028a90610c5d565b60405180910390fd5b7fc51a4c9955e7f8ddf6dbb1adb2075f1e98be020df5b7d4a35016b21769b4f9dc8260000160208101906102c79190610b38565b6040516102d49190610c8c565b60405180910390a15050565b60008060007f7fffffffffffffffffffffffffffffff5d576e7357a4501ddfe92f46681b20a08460001c11156103205760006003859250925092506103ca565b6000600188888888604051600081526020016040526040516103459493929190610cc5565b6020604051602081039080840390855afa158015610367573d6000803e3d6000fd5b505050602060405103519050600073ffffffffffffffffffffffffffffffffffffffff168173ffffffffffffffffffffffffffffffffffffffff16036103bb57600060016000801b935093509350506103ca565b8060008060001b935093509350505b9450945094915050565b600060038111156103e8576103e7610d0a565b5b8260038111156103fb576103fa610d0a565b5b0315610534576001600381111561041557610414610d0a565b5b82600381111561042857610427610d0a565b5b0361045f576040517ff645eedf00000000000000000000000000000000000000000000000000000000815260040160405180910390fd5b6002600381111561047357610472610d0a565b5b82600381111561048657610485610d0a565b5b036104cb578060001c6040517ffce698f70000000000000000000000000000000000000000000000000000000081526004016104c291906106b7565b60405180910390fd5b6003808111156104de576104dd610d0a565b5b8260038111156104f1576104f0610d0a565b5b0361053357806040517fd78bce0c00000000000000000000000000000000000000000000000000000000815260040161052a9190610d39565b60405180910390fd5b5b5050565b600080fd5b600080fd5b600080fd5b600080fd5b600080fd5b60008083601f84011261056757610566610542565b5b8235905067ffffffffffffffff81111561058457610583610547565b5b6020830191508360208202830111156105a05761059f61054c565b5b9250929050565b600060ff82169050919050565b6105bd816105a7565b81146105c857600080fd5b50565b6000813590506105da816105b4565b92915050565b6000819050919050565b6105f3816105e0565b81146105fe57600080fd5b50565b600081359050610610816105ea565b92915050565b60008060008060006080868803121561063257610631610538565b5b600086013567ffffffffffffffff8111156106505761064f61053d565b5b61065c88828901610551565b9550955050602061066f888289016105cb565b935050604061068088828901610601565b925050606061069188828901610601565b9150509295509295909350565b6000819050919050565b6106b18161069e565b82525050565b60006020820190506106cc60008301846106a8565b92915050565b600082825260208201905092915050565b6000819050919050565b600073ffffffffffffffffffffffffffffffffffffffff82169050919050565b6000610718826106ed565b9050919050565b6107288161070d565b811461073357600080fd5b50565b6000813590506107458161071f565b92915050565b600061075a6020840184610736565b905092915050565b61076b8161070d565b82525050565b61077a8161069e565b811461078557600080fd5b50565b60008135905061079781610771565b92915050565b60006107ac6020840184610788565b905092915050565b6107bd8161069e565b82525050565b600080fd5b600080fd5b600080fd5b600080833560016020038436030381126107ef576107ee6107cd565b5b83810192508235915060208301925067ffffffffffffffff821115610817576108166107c3565b5b60018202360383131561082d5761082c6107c8565b5b509250929050565b600082825260208201905092915050565b82818337600083830152505050565b6000601f19601f8301169050919050565b60006108728385610835565b935061087f838584610846565b61088883610855565b840190509392505050565b6000606083016108a6600084018461074b565b6108b36000860182610762565b506108c1602084018461079d565b6108ce60208601826107b4565b506108dc60408401846107d2565b85830360408701526108ef838284610866565b925050508091505092915050565b60006109098383610893565b905092915050565b60008235600160600383360303811261092d5761092c6107cd565b5b82810191505092915050565b6000602082019050919050565b600061095283856106d2565b935083602084028501610964846106e3565b8060005b878110156109a857848403895261097f8284610911565b61098985826108fd565b945061099483610939565b925060208a01995050600181019050610968565b50829750879450505050509392505050565b600060208201905081810360008301526109d5818486610946565b90509392505050565b600082825260208201905092915050565b7f496e76616c6964207369676e6174757265000000000000000000000000000000600082015250565b6000610a256011836109de565b9150610a30826109ef565b602082019050919050565b60006020820190508181036000830152610a5481610a18565b9050919050565b7f4e487b7100000000000000000000000000000000000000000000000000000000600052601160045260246000fd5b6000610a958261069e565b91507fffffffffffffffffffffffffffffffffffffffffffffffffffffffffffffffff8203610ac757610ac6610a5b565b5b600182019050919050565b7f4e487b7100000000000000000000000000000000000000000000000000000000600052603260045260246000fd5b600080fd5b600080fd5b600080fd5b600082356001606003833603038112610b2c57610b2b610b01565b5b80830191505092915050565b600060208284031215610b4e57610b4d610538565b5b6000610b5c84828501610736565b91505092915050565b60008083356001602003843603038112610b8257610b81610b01565b5b80840192508235915067ffffffffffffffff821115610ba457610ba3610b06565b5b602083019250600182023603831315610bc057610bbf610b0b565b5b509250929050565b600081905092915050565b6000610bdf8385610bc8565b9350610bec838584610846565b82840190509392505050565b6000610c05828486610bd3565b91508190509392505050565b7f5472616e73666572207265766572746564000000000000000000000000000000600082015250565b6000610c476011836109de565b9150610c5282610c11565b602082019050919050565b60006020820190508181036000830152610c7681610c3a565b9050919050565b610c868161070d565b82525050565b6000602082019050610ca16000830184610c7d565b92915050565b610cb0816105e0565b82525050565b610cbf816105a7565b82525050565b6000608082019050610cda6000830187610ca7565b610ce76020830186610cb6565b610cf46040830185610ca7565b610d016060830184610ca7565b95945050505050565b7f4e487b7100000000000000000000000000000000000000000000000000000000600052602160045260246000fd5b6000602082019050610d4e6000830184610ca7565b9291505056fea2646970667358221220f43ae54b92f0152bc695a7137c83980e7c43ab1062027949a1e40d8c5710e04664736f6c63430008180033","opcodes":"PUSH1 0x80 PUSH1 0x40 MSTORE CALLVALUE DUP1 ISZERO PUSH2 0x10 JUMPI PUSH1 0x0 DUP1 REVERT JUMPDEST POP PUSH2 0xD8A DUP1 PUSH2 0x20 PUSH1 0x0 CODECOPY PUSH1 0x0 RETURN INVALID PUSH1 0x80 PUSH1 0x40 MSTORE CALLVALUE DUP1 ISZERO PUSH2 0x10 JUMPI PUSH1 0x0 DUP1 REVERT JUMPDEST POP PUSH1 0x4 CALLDATASIZE LT PUSH2 0x36 JUMPI PUSH1 0x0 CALLDATALOAD PUSH1 0xE0 SHR DUP1 PUSH4 0xAB013380 EQ PUSH2 0x3B JUMPI DUP1 PUSH4 0xAFFED0E0 EQ PUSH2 0x57 JUMPI JUMPDEST PUSH1 0x0 DUP1 REVERT JUMPDEST PUSH2 0x55 PUSH1 0x4 DUP1 CALLDATASIZE SUB DUP2 ADD SWAP1 PUSH2 0x50 SWAP2 SWAP1 PUSH2 0x616 JUMP JUMPDEST PUSH2 0x75 JUMP JUMPDEST STOP JUMPDEST PUSH2 0x5F PUSH2 0x189 JUMP JUMPDEST PUSH1 0x40 MLOAD PUSH2 0x6C SWAP2 SWAP1 PUSH2 0x6B7 JUMP JUMPDEST PUSH1 0x40 MLOAD DUP1 SWAP2 SUB SWAP1 RETURN JUMPDEST PUSH1 0x0 DUP6 DUP6 PUSH1 0x40 MLOAD PUSH1 0x20 ADD PUSH2 0x8A SWAP3 SWAP2 SWAP1 PUSH2 0x9BA JUMP JUMPDEST PUSH1 0x40 MLOAD PUSH1 0x20 DUP2 DUP4 SUB SUB DUP2 MSTORE SWAP1 PUSH1 0x40 MSTORE DUP1 MLOAD SWAP1 PUSH1 0x20 ADD KECCAK256 SWAP1 POP PUSH1 0x0 PUSH2 0xB0 DUP3 DUP7 DUP7 DUP7 PUSH2 0x18F JUMP JUMPDEST SWAP1 POP ADDRESS PUSH20 0xFFFFFFFFFFFFFFFFFFFFFFFFFFFFFFFFFFFFFFFF AND DUP2 PUSH20 0xFFFFFFFFFFFFFFFFFFFFFFFFFFFFFFFFFFFFFFFF AND EQ PUSH2 0x120 JUMPI PUSH1 0x40 MLOAD PUSH32 0x8C379A000000000000000000000000000000000000000000000000000000000 DUP2 MSTORE PUSH1 0x4 ADD PUSH2 0x117 SWAP1 PUSH2 0xA3B JUMP JUMPDEST PUSH1 0x40 MLOAD DUP1 SWAP2 SUB SWAP1 REVERT JUMPDEST PUSH1 0x0 DUP1 DUP2 SLOAD DUP1 SWAP3 SWAP2 SWAP1 PUSH2 0x132 SWAP1 PUSH2 0xA8A JUMP JUMPDEST SWAP2 SWAP1 POP SSTORE POP PUSH1 0x0 JUMPDEST DUP8 DUP8 SWAP1 POP DUP2 LT ISZERO PUSH2 0x17F JUMPI PUSH2 0x172 DUP9 DUP9 DUP4 DUP2 DUP2 LT PUSH2 0x15B JUMPI PUSH2 0x15A PUSH2 0xAD2 JUMP JUMPDEST JUMPDEST SWAP1 POP PUSH1 0x20 MUL DUP2 ADD SWAP1 PUSH2 0x16D SWAP2 SWAP1 PUSH2 0xB10 JUMP JUMPDEST PUSH2 0x1BF JUMP JUMPDEST DUP1 DUP1 PUSH1 0x1 ADD SWAP2 POP POP PUSH2 0x13A JUMP JUMPDEST POP POP POP POP POP POP POP POP JUMP JUMPDEST PUSH1 0x0 SLOAD DUP2 JUMP JUMPDEST PUSH1 0x0 DUP1 PUSH1 0x0 DUP1 PUSH2 0x1A1 DUP9 DUP9 DUP9 DUP9 PUSH2 0x2E0 JUMP JUMPDEST SWAP3 POP SWAP3 POP SWAP3 POP PUSH2 0x1B1 DUP3 DUP3 PUSH2 0x3D4 JUMP JUMPDEST DUP3 SWAP4 POP POP POP POP SWAP5 SWAP4 POP POP POP POP JUMP JUMPDEST PUSH1 0x0 DUP2 PUSH1 0x0 ADD PUSH1 0x20 DUP2 ADD SWAP1 PUSH2 0x1D4 SWAP2 SWAP1 PUSH2 0xB38 JUMP JUMPDEST PUSH20 0xFFFFFFFFFFFFFFFFFFFFFFFFFFFFFFFFFFFFFFFF AND DUP3 PUSH1 0x20 ADD CALLDATALOAD DUP4 DUP1 PUSH1 0x40 ADD SWAP1 PUSH2 0x1FF SWAP2 SWAP1 PUSH2 0xB65 JUMP JUMPDEST PUSH1 0x40 MLOAD PUSH2 0x20D SWAP3 SWAP2 SWAP1 PUSH2 0xBF8 JUMP JUMPDEST PUSH1 0x0 PUSH1 0x40 MLOAD DUP1 DUP4 SUB DUP2 DUP6 DUP8 GAS CALL SWAP3 POP POP POP RETURNDATASIZE DUP1 PUSH1 0x0 DUP2 EQ PUSH2 0x24A JUMPI PUSH1 0x40 MLOAD SWAP2 POP PUSH1 0x1F NOT PUSH1 0x3F RETURNDATASIZE ADD AND DUP3 ADD PUSH1 0x40 MSTORE RETURNDATASIZE DUP3 MSTORE RETURNDATASIZE PUSH1 0x0 PUSH1 0x20 DUP5 ADD RETURNDATACOPY PUSH2 0x24F JUMP JUMPDEST PUSH1 0x60 SWAP2 POP JUMPDEST POP POP SWAP1 POP DUP1 PUSH2 0x293 JUMPI PUSH1 0x40 MLOAD PUSH32 0x8C379A000000000000000000000000000000000000000000000000000000000 DUP2 MSTORE PUSH1 0x4 ADD PUSH2 0x28A SWAP1 PUSH2 0xC5D JUMP JUMPDEST PUSH1 0x40 MLOAD DUP1 SWAP2 SUB SWAP1 REVERT JUMPDEST PUSH32 0xC51A4C9955E7F8DDF6DBB1ADB2075F1E98BE020DF5B7D4A35016B21769B4F9DC DUP3 PUSH1 0x0 ADD PUSH1 0x20 DUP2 ADD SWAP1 PUSH2 0x2C7 SWAP2 SWAP1 PUSH2 0xB38 JUMP JUMPDEST PUSH1 0x40 MLOAD PUSH2 0x2D4 SWAP2 SWAP1 PUSH2 0xC8C JUMP JUMPDEST PUSH1 0x40 MLOAD DUP1 SWAP2 SUB SWAP1 LOG1 POP POP JUMP JUMPDEST PUSH1 0x0 DUP1 PUSH1 0x0 PUSH32 0x7FFFFFFFFFFFFFFFFFFFFFFFFFFFFFFF5D576E7357A4501DDFE92F46681B20A0 DUP5 PUSH1 0x0 SHR GT ISZERO PUSH2 0x320 JUMPI PUSH1 0x0 PUSH1 0x3 DUP6 SWAP3 POP SWAP3 POP SWAP3 POP PUSH2 0x3CA JUMP JUMPDEST PUSH1 0x0 PUSH1 0x1 DUP9 DUP9 DUP9 DUP9 PUSH1 0x40 MLOAD PUSH1 0x0 DUP2 MSTORE PUSH1 0x20 ADD PUSH1 0x40 MSTORE PUSH1 0x40 MLOAD PUSH2 0x345 SWAP5 SWAP4 SWAP3 SWAP2 SWAP1 PUSH2 0xCC5 JUMP JUMPDEST PUSH1 0x20 PUSH1 0x40 MLOAD PUSH1 0x20 DUP2 SUB SWAP1 DUP1 DUP5 SUB SWAP1 DUP6 GAS STATICCALL ISZERO DUP1 ISZERO PUSH2 0x367 JUMPI RETURNDATASIZE PUSH1 0x0 DUP1 RETURNDATACOPY RETURNDATASIZE PUSH1 0x0 REVERT JUMPDEST POP POP POP PUSH1 0x20 PUSH1 0x40 MLOAD SUB MLOAD SWAP1 POP PUSH1 0x0 PUSH20 0xFFFFFFFFFFFFFFFFFFFFFFFFFFFFFFFFFFFFFFFF AND DUP2 PUSH20 0xFFFFFFFFFFFFFFFFFFFFFFFFFFFFFFFFFFFFFFFF AND SUB PUSH2 0x3BB JUMPI PUSH1 0x0 PUSH1 0x1 PUSH1 0x0 DUP1 SHL SWAP4 POP SWAP4 POP SWAP4 POP POP PUSH2 0x3CA JUMP JUMPDEST DUP1 PUSH1 0x0 DUP1 PUSH1 0x0 SHL SWAP4 POP SWAP4 POP SWAP4 POP POP JUMPDEST SWAP5 POP SWAP5 POP SWAP5 SWAP2 POP POP JUMP JUMPDEST PUSH1 0x0 PUSH1 0x3 DUP2 GT ISZERO PUSH2 0x3E8 JUMPI PUSH2 0x3E7 PUSH2 0xD0A JUMP JUMPDEST JUMPDEST DUP3 PUSH1 0x3 DUP2 GT ISZERO PUSH2 0x3FB JUMPI PUSH2 0x3FA PUSH2 0xD0A JUMP JUMPDEST JUMPDEST SUB ISZERO PUSH2 0x534 JUMPI PUSH1 0x1 PUSH1 0x3 DUP2 GT ISZERO PUSH2 0x415 JUMPI PUSH2 0x414 PUSH2 0xD0A JUMP JUMPDEST JUMPDEST DUP3 PUSH1 0x3 DUP2 GT ISZERO PUSH2 0x428 JUMPI PUSH2 0x427 PUSH2 0xD0A JUMP JUMPDEST JUMPDEST SUB PUSH2 0x45F JUMPI PUSH1 0x40 MLOAD PUSH32 0xF645EEDF00000000000000000000000000000000000000000000000000000000 DUP2 MSTORE PUSH1 0x4 ADD PUSH1 0x40 MLOAD DUP1 SWAP2 SUB SWAP1 REVERT JUMPDEST PUSH1 0x2 PUSH1 0x3 DUP2 GT ISZERO PUSH2 0x473 JUMPI PUSH2 0x472 PUSH2 0xD0A JUMP JUMPDEST JUMPDEST DUP3 PUSH1 0x3 DUP2 GT ISZERO PUSH2 0x486 JUMPI PUSH2 0x485 PUSH2 0xD0A JUMP JUMPDEST JUMPDEST SUB PUSH2 0x4CB JUMPI DUP1 PUSH1 0x0 SHR PUSH1 0x40 MLOAD PUSH32 0xFCE698F700000000000000000000000000000000000000000000000000000000 DUP2 MSTORE PUSH1 0x4 ADD PUSH2 0x4C2 SWAP2 SWAP1 PUSH2 0x6B7 JUMP JUMPDEST PUSH1 0x40 MLOAD DUP1 SWAP2 SUB SWAP1 REVERT JUMPDEST PUSH1 0x3 DUP1 DUP2 GT ISZERO PUSH2 0x4DE JUMPI PUSH2 0x4DD PUSH2 0xD0A JUMP JUMPDEST JUMPDEST DUP3 PUSH1 0x3 DUP2 GT ISZERO PUSH2 0x4F1 JUMPI PUSH2 0x4F0 PUSH2 0xD0A JUMP JUMPDEST JUMPDEST SUB PUSH2 0x533 JUMPI DUP1 PUSH1 0x40 MLOAD PUSH32 0xD78BCE0C00000000000000000000000000000000000000000000000000000000 DUP2 MSTORE PUSH1 0x4 ADD PUSH2 0x52A SWAP2 SWAP1 PUSH2 0xD39 JUMP JUMPDEST PUSH1 0x40 MLOAD DUP1 SWAP2 SUB SWAP1 REVERT JUMPDEST JUMPDEST POP POP JUMP JUMPDEST PUSH1 0x0 DUP1 REVERT JUMPDEST PUSH1 0x0 DUP1 REVERT JUMPDEST PUSH1 0x0 DUP1 REVERT JUMPDEST PUSH1 0x0 DUP1 REVERT JUMPDEST PUSH1 0x0 DUP1 REVERT JUMPDEST PUSH1 0x0 DUP1 DUP4 PUSH1 0x1F DUP5 ADD SLT PUSH2 0x567 JUMPI PUSH2 0x566 PUSH2 0x542 JUMP JUMPDEST JUMPDEST DUP3 CALLDATALOAD SWAP1 POP PUSH8 0xFFFFFFFFFFFFFFFF DUP2 GT ISZERO PUSH2 0x584 JUMPI PUSH2 0x583 PUSH2 0x547 JUMP JUMPDEST JUMPDEST PUSH1 0x20 DUP4 ADD SWAP2 POP DUP4 PUSH1 0x20 DUP3 MUL DUP4 ADD GT ISZERO PUSH2 0x5A0 JUMPI PUSH2 0x59F PUSH2 0x54C JUMP JUMPDEST JUMPDEST SWAP3 POP SWAP3 SWAP1 POP JUMP JUMPDEST PUSH1 0x0 PUSH1 0xFF DUP3 AND SWAP1 POP SWAP2 SWAP1 POP JUMP JUMPDEST PUSH2 0x5BD DUP2 PUSH2 0x5A7 JUMP JUMPDEST DUP2 EQ PUSH2 0x5C8 JUMPI PUSH1 0x0 DUP1 REVERT JUMPDEST POP JUMP JUMPDEST PUSH1 0x0 DUP2 CALLDATALOAD SWAP1 POP PUSH2 0x5DA DUP2 PUSH2 0x5B4 JUMP JUMPDEST SWAP3 SWAP2 POP POP JUMP JUMPDEST PUSH1 0x0 DUP2 SWAP1 POP SWAP2 SWAP1 POP JUMP JUMPDEST PUSH2 0x5F3 DUP2 PUSH2 0x5E0 JUMP JUMPDEST DUP2 EQ PUSH2 0x5FE JUMPI PUSH1 0x0 DUP1 REVERT JUMPDEST POP JUMP JUMPDEST PUSH1 0x0 DUP2 CALLDATALOAD SWAP1 POP PUSH2 0x610 DUP2 PUSH2 0x5EA JUMP JUMPDEST SWAP3 SWAP2 POP POP JUMP JUMPDEST PUSH1 0x0 DUP1 PUSH1 0x0 DUP1 PUSH1 0x0 PUSH1 0x80 DUP7 DUP9 SUB SLT ISZERO PUSH2 0x632 JUMPI PUSH2 0x631 PUSH2 0x538 JUMP JUMPDEST JUMPDEST PUSH1 0x0 DUP7 ADD CALLDATALOAD PUSH8 0xFFFFFFFFFFFFFFFF DUP2 GT ISZERO PUSH2 0x650 JUMPI PUSH2 0x64F PUSH2 0x53D JUMP JUMPDEST JUMPDEST PUSH2 0x65C DUP9 DUP3 DUP10 ADD PUSH2 0x551 JUMP JUMPDEST SWAP6 POP SWAP6 POP POP PUSH1 0x20 PUSH2 0x66F DUP9 DUP3 DUP10 ADD PUSH2 0x5CB JUMP JUMPDEST SWAP4 POP POP PUSH1 0x40 PUSH2 0x680 DUP9 DUP3 DUP10 ADD PUSH2 0x601 JUMP JUMPDEST SWAP3 POP POP PUSH1 0x60 PUSH2 0x691 DUP9 DUP3 DUP10 ADD PUSH2 0x601 JUMP JUMPDEST SWAP2 POP POP SWAP3 SWAP6 POP SWAP3 SWAP6 SWAP1 SWAP4 POP JUMP JUMPDEST PUSH1 0x0 DUP2 SWAP1 POP SWAP2 SWAP1 POP JUMP JUMPDEST PUSH2 0x6B1 DUP2 PUSH2 0x69E JUMP JUMPDEST DUP3 MSTORE POP POP JUMP JUMPDEST PUSH1 0x0 PUSH1 0x20 DUP3 ADD SWAP1 POP PUSH2 0x6CC PUSH1 0x0 DUP4 ADD DUP5 PUSH2 0x6A8 JUMP JUMPDEST SWAP3 SWAP2 POP POP JUMP JUMPDEST PUSH1 0x0 DUP3 DUP3 MSTORE PUSH1 0x20 DUP3 ADD SWAP1 POP SWAP3 SWAP2 POP POP JUMP JUMPDEST PUSH1 0x0 DUP2 SWAP1 POP SWAP2 SWAP1 POP JUMP JUMPDEST PUSH1 0x0 PUSH20 0xFFFFFFFFFFFFFFFFFFFFFFFFFFFFFFFFFFFFFFFF DUP3 AND SWAP1 POP SWAP2 SWAP1 POP JUMP JUMPDEST PUSH1 0x0 PUSH2 0x718 DUP3 PUSH2 0x6ED JUMP JUMPDEST SWAP1 POP SWAP2 SWAP1 POP JUMP JUMPDEST PUSH2 0x728 DUP2 PUSH2 0x70D JUMP JUMPDEST DUP2 EQ PUSH2 0x733 JUMPI PUSH1 0x0 DUP1 REVERT JUMPDEST POP JUMP JUMPDEST PUSH1 0x0 DUP2 CALLDATALOAD SWAP1 POP PUSH2 0x745 DUP2 PUSH2 0x71F JUMP JUMPDEST SWAP3 SWAP2 POP POP JUMP JUMPDEST PUSH1 0x0 PUSH2 0x75A PUSH1 0x20 DUP5 ADD DUP5 PUSH2 0x736 JUMP JUMPDEST SWAP1 POP SWAP3 SWAP2 POP POP JUMP JUMPDEST PUSH2 0x76B DUP2 PUSH2 0x70D JUMP JUMPDEST DUP3 MSTORE POP POP JUMP JUMPDEST PUSH2 0x77A DUP2 PUSH2 0x69E JUMP JUMPDEST DUP2 EQ PUSH2 0x785 JUMPI PUSH1 0x0 DUP1 REVERT JUMPDEST POP JUMP JUMPDEST PUSH1 0x0 DUP2 CALLDATALOAD SWAP1 POP PUSH2 0x797 DUP2 PUSH2 0x771 JUMP JUMPDEST SWAP3 SWAP2 POP POP JUMP JUMPDEST PUSH1 0x0 PUSH2 0x7AC PUSH1 0x20 DUP5 ADD DUP5 PUSH2 0x788 JUMP JUMPDEST SWAP1 POP SWAP3 SWAP2 POP POP JUMP JUMPDEST PUSH2 0x7BD DUP2 PUSH2 0x69E JUMP JUMPDEST DUP3 MSTORE POP POP JUMP JUMPDEST PUSH1 0x0 DUP1 REVERT JUMPDEST PUSH1 0x0 DUP1 REVERT JUMPDEST PUSH1 0x0 DUP1 REVERT JUMPDEST PUSH1 0x0 DUP1 DUP4 CALLDATALOAD PUSH1 0x1 PUSH1 0x20 SUB DUP5 CALLDATASIZE SUB SUB DUP2 SLT PUSH2 0x7EF JUMPI PUSH2 0x7EE PUSH2 0x7CD JUMP JUMPDEST JUMPDEST DUP4 DUP2 ADD SWAP3 POP DUP3 CALLDATALOAD SWAP2 POP PUSH1 0x20 DUP4 ADD SWAP3 POP PUSH8 0xFFFFFFFFFFFFFFFF DUP3 GT ISZERO PUSH2 0x817 JUMPI PUSH2 0x816 PUSH2 0x7C3 JUMP JUMPDEST JUMPDEST PUSH1 0x1 DUP3 MUL CALLDATASIZE SUB DUP4 SGT ISZERO PUSH2 0x82D JUMPI PUSH2 0x82C PUSH2 0x7C8 JUMP JUMPDEST JUMPDEST POP SWAP3 POP SWAP3 SWAP1 POP JUMP JUMPDEST PUSH1 0x0 DUP3 DUP3 MSTORE PUSH1 0x20 DUP3 ADD SWAP1 POP SWAP3 SWAP2 POP POP JUMP JUMPDEST DUP3 DUP2 DUP4 CALLDATACOPY PUSH1 0x0 DUP4 DUP4 ADD MSTORE POP POP POP JUMP JUMPDEST PUSH1 0x0 PUSH1 0x1F NOT PUSH1 0x1F DUP4 ADD AND SWAP1 POP SWAP2 SWAP1 POP JUMP JUMPDEST PUSH1 0x0 PUSH2 0x872 DUP4 DUP6 PUSH2 0x835 JUMP JUMPDEST SWAP4 POP PUSH2 0x87F DUP4 DUP6 DUP5 PUSH2 0x846 JUMP JUMPDEST PUSH2 0x888 DUP4 PUSH2 0x855 JUMP JUMPDEST DUP5 ADD SWAP1 POP SWAP4 SWAP3 POP POP POP JUMP JUMPDEST PUSH1 0x0 PUSH1 0x60 DUP4 ADD PUSH2 0x8A6 PUSH1 0x0 DUP5 ADD DUP5 PUSH2 0x74B JUMP JUMPDEST PUSH2 0x8B3 PUSH1 0x0 DUP7 ADD DUP3 PUSH2 0x762 JUMP JUMPDEST POP PUSH2 0x8C1 PUSH1 0x20 DUP5 ADD DUP5 PUSH2 0x79D JUMP JUMPDEST PUSH2 0x8CE PUSH1 0x20 DUP7 ADD DUP3 PUSH2 0x7B4 JUMP JUMPDEST POP PUSH2 0x8DC PUSH1 0x40 DUP5 ADD DUP5 PUSH2 0x7D2 JUMP JUMPDEST DUP6 DUP4 SUB PUSH1 0x40 DUP8 ADD MSTORE PUSH2 0x8EF DUP4 DUP3 DUP5 PUSH2 0x866 JUMP JUMPDEST SWAP3 POP POP POP DUP1 SWAP2 POP POP SWAP3 SWAP2 POP POP JUMP JUMPDEST PUSH1 0x0 PUSH2 0x909 DUP4 DUP4 PUSH2 0x893 JUMP JUMPDEST SWAP1 POP SWAP3 SWAP2 POP POP JUMP JUMPDEST PUSH1 0x0 DUP3 CALLDATALOAD PUSH1 0x1 PUSH1 0x60 SUB DUP4 CALLDATASIZE SUB SUB DUP2 SLT PUSH2 0x92D JUMPI PUSH2 0x92C PUSH2 0x7CD JUMP JUMPDEST JUMPDEST DUP3 DUP2 ADD SWAP2 POP POP SWAP3 SWAP2 POP POP JUMP JUMPDEST PUSH1 0x0 PUSH1 0x20 DUP3 ADD SWAP1 POP SWAP2 SWAP1 POP JUMP JUMPDEST PUSH1 0x0 PUSH2 0x952 DUP4 DUP6 PUSH2 0x6D2 JUMP JUMPDEST SWAP4 POP DUP4 PUSH1 0x20 DUP5 MUL DUP6 ADD PUSH2 0x964 DUP5 PUSH2 0x6E3 JUMP JUMPDEST DUP1 PUSH1 0x0 JUMPDEST DUP8 DUP2 LT ISZERO PUSH2 0x9A8 JUMPI DUP5 DUP5 SUB DUP10 MSTORE PUSH2 0x97F DUP3 DUP5 PUSH2 0x911 JUMP JUMPDEST PUSH2 0x989 DUP6 DUP3 PUSH2 0x8FD JUMP JUMPDEST SWAP5 POP PUSH2 0x994 DUP4 PUSH2 0x939 JUMP JUMPDEST SWAP3 POP PUSH1 0x20 DUP11 ADD SWAP10 POP POP PUSH1 0x1 DUP2 ADD SWAP1 POP PUSH2 0x968 JUMP JUMPDEST POP DUP3 SWAP8 POP DUP8 SWAP5 POP POP POP POP POP SWAP4 SWAP3 POP POP POP JUMP JUMPDEST PUSH1 0x0 PUSH1 0x20 DUP3 ADD SWAP1 POP DUP2 DUP2 SUB PUSH1 0x0 DUP4 ADD MSTORE PUSH2 0x9D5 DUP2 DUP5 DUP7 PUSH2 0x946 JUMP JUMPDEST SWAP1 POP SWAP4 SWAP3 POP POP POP JUMP JUMPDEST PUSH1 0x0 DUP3 DUP3 MSTORE PUSH1 0x20 DUP3 ADD SWAP1 POP SWAP3 SWAP2 POP POP JUMP JUMPDEST PUSH32 0x496E76616C6964207369676E6174757265000000000000000000000000000000 PUSH1 0x0 DUP3 ADD MSTORE POP JUMP JUMPDEST PUSH1 0x0 PUSH2 0xA25 PUSH1 0x11 DUP4 PUSH2 0x9DE JUMP JUMPDEST SWAP2 POP PUSH2 0xA30 DUP3 PUSH2 0x9EF JUMP JUMPDEST PUSH1 0x20 DUP3 ADD SWAP1 POP SWAP2 SWAP1 POP JUMP JUMPDEST PUSH1 0x0 PUSH1 0x20 DUP3 ADD SWAP1 POP DUP2 DUP2 SUB PUSH1 0x0 DUP4 ADD MSTORE PUSH2 0xA54 DUP2 PUSH2 0xA18 JUMP JUMPDEST SWAP1 POP SWAP2 SWAP1 POP JUMP JUMPDEST PUSH32 0x4E487B7100000000000000000000000000000000000000000000000000000000 PUSH1 0x0 MSTORE PUSH1 0x11 PUSH1 0x4 MSTORE PUSH1 0x24 PUSH1 0x0 REVERT JUMPDEST PUSH1 0x0 PUSH2 0xA95 DUP3 PUSH2 0x69E JUMP JUMPDEST SWAP2 POP PUSH32 0xFFFFFFFFFFFFFFFFFFFFFFFFFFFFFFFFFFFFFFFFFFFFFFFFFFFFFFFFFFFFFFFF DUP3 SUB PUSH2 0xAC7 JUMPI PUSH2 0xAC6 PUSH2 0xA5B JUMP JUMPDEST JUMPDEST PUSH1 0x1 DUP3 ADD SWAP1 POP SWAP2 SWAP1 POP JUMP JUMPDEST PUSH32 0x4E487B7100000000000000000000000000000000000000000000000000000000 PUSH1 0x0 MSTORE PUSH1 0x32 PUSH1 0x4 MSTORE PUSH1 0x24 PUSH1 0x0 REVERT JUMPDEST PUSH1 0x0 DUP1 REVERT JUMPDEST PUSH1 0x0 DUP1 REVERT JUMPDEST PUSH1 0x0 DUP1 REVERT JUMPDEST PUSH1 0x0 DUP3 CALLDATALOAD PUSH1 0x1 PUSH1 0x60 SUB DUP4 CALLDATASIZE SUB SUB DUP2 SLT PUSH2 0xB2C JUMPI PUSH2 0xB2B PUSH2 0xB01 JUMP JUMPDEST JUMPDEST DUP1 DUP4 ADD SWAP2 POP POP SWAP3 SWAP2 POP POP JUMP JUMPDEST PUSH1 0x0 PUSH1 0x20 DUP3 DUP5 SUB SLT ISZERO PUSH2 0xB4E JUMPI PUSH2 0xB4D PUSH2 0x538 JUMP JUMPDEST JUMPDEST PUSH1 0x0 PUSH2 0xB5C DUP5 DUP3 DUP6 ADD PUSH2 0x736 JUMP JUMPDEST SWAP2 POP POP SWAP3 SWAP2 POP POP JUMP JUMPDEST PUSH1 0x0 DUP1 DUP4 CALLDATALOAD PUSH1 0x1 PUSH1 0x20 SUB DUP5 CALLDATASIZE SUB SUB DUP2 SLT PUSH2 0xB82 JUMPI PUSH2 0xB81 PUSH2 0xB01 JUMP JUMPDEST JUMPDEST DUP1 DUP5 ADD SWAP3 POP DUP3 CALLDATALOAD SWAP2 POP PUSH8 0xFFFFFFFFFFFFFFFF DUP3 GT ISZERO PUSH2 0xBA4 JUMPI PUSH2 0xBA3 PUSH2 0xB06 JUMP JUMPDEST JUMPDEST PUSH1 0x20 DUP4 ADD SWAP3 POP PUSH1 0x1 DUP3 MUL CALLDATASIZE SUB DUP4 SGT ISZERO PUSH2 0xBC0 JUMPI PUSH2 0xBBF PUSH2 0xB0B JUMP JUMPDEST JUMPDEST POP SWAP3 POP SWAP3 SWAP1 POP JUMP JUMPDEST PUSH1 0x0 DUP2 SWAP1 POP SWAP3 SWAP2 POP POP JUMP JUMPDEST PUSH1 0x0 PUSH2 0xBDF DUP4 DUP6 PUSH2 0xBC8 JUMP JUMPDEST SWAP4 POP PUSH2 0xBEC DUP4 DUP6 DUP5 PUSH2 0x846 JUMP JUMPDEST DUP3 DUP5 ADD SWAP1 POP SWAP4 SWAP3 POP POP POP JUMP JUMPDEST PUSH1 0x0 PUSH2 0xC05 DUP3 DUP5 DUP7 PUSH2 0xBD3 JUMP JUMPDEST SWAP2 POP DUP2 SWAP1 POP SWAP4 SWAP3 POP POP POP JUMP JUMPDEST PUSH32 0x5472616E73666572207265766572746564000000000000000000000000000000 PUSH1 0x0 DUP3 ADD MSTORE POP JUMP JUMPDEST PUSH1 0x0 PUSH2 0xC47 PUSH1 0x11 DUP4 PUSH2 0x9DE JUMP JUMPDEST SWAP2 POP PUSH2 0xC52 DUP3 PUSH2 0xC11 JUMP JUMPDEST PUSH1 0x20 DUP3 ADD SWAP1 POP SWAP2 SWAP1 POP JUMP JUMPDEST PUSH1 0x0 PUSH1 0x20 DUP3 ADD SWAP1 POP DUP2 DUP2 SUB PUSH1 0x0 DUP4 ADD MSTORE PUSH2 0xC76 DUP2 PUSH2 0xC3A JUMP JUMPDEST SWAP1 POP SWAP2 SWAP1 POP JUMP JUMPDEST PUSH2 0xC86 DUP2 PUSH2 0x70D JUMP JUMPDEST DUP3 MSTORE POP POP JUMP JUMPDEST PUSH1 0x0 PUSH1 0x20 DUP3 ADD SWAP1 POP PUSH2 0xCA1 PUSH1 0x0 DUP4 ADD DUP5 PUSH2 0xC7D JUMP JUMPDEST SWAP3 SWAP2 POP POP JUMP JUMPDEST PUSH2 0xCB0 DUP2 PUSH2 0x5E0 JUMP JUMPDEST DUP3 MSTORE POP POP JUMP JUMPDEST PUSH2 0xCBF DUP2 PUSH2 0x5A7 JUMP JUMPDEST DUP3 MSTORE POP POP JUMP JUMPDEST PUSH1 0x0 PUSH1 0x80 DUP3 ADD SWAP1 POP PUSH2 0xCDA PUSH1 0x0 DUP4 ADD DUP8 PUSH2 0xCA7 JUMP JUMPDEST PUSH2 0xCE7 PUSH1 0x20 DUP4 ADD DUP7 PUSH2 0xCB6 JUMP JUMPDEST PUSH2 0xCF4 PUSH1 0x40 DUP4 ADD DUP6 PUSH2 0xCA7 JUMP JUMPDEST PUSH2 0xD01 PUSH1 0x60 DUP4 ADD DUP5 PUSH2 0xCA7 JUMP JUMPDEST SWAP6 SWAP5 POP POP POP POP POP JUMP JUMPDEST PUSH32 0x4E487B7100000000000000000000000000000000000000000000000000000000 PUSH1 0x0 MSTORE PUSH1 0x21 PUSH1 0x4 MSTORE PUSH1 0x24 PUSH1 0x0 REVERT JUMPDEST PUSH1 0x0 PUSH1 0x20 DUP3 ADD SWAP1 POP PUSH2 0xD4E PUSH1 0x0 DUP4 ADD DUP5 PUSH2 0xCA7 JUMP JUMPDEST SWAP3 SWAP2 POP POP JUMP INVALID LOG2 PUSH5 0x6970667358 0x22 SLT KECCAK256 DELEGATECALL GASPRICE 0xE5 0x4B SWAP3 CREATE ISZERO 0x2B 0xC6 SWAP6 0xA7 SGT PUSH29 0x83980E7C43AB1062027949A1E40D8C5710E04664736F6C634300081800 CALLER "},"methodIdentifiers":{"execute_batch_transfer((address,uint256,bytes)[],uint8,bytes32,bytes32)":"ab013380","nonce()":"affed0e0"}}}}}