{
  "_format": "hh-sol-artifact-1",
  "contractName": "BatchContract",
  "sourceName": "contracts/batch.sol",
  "abi": [
    {
      "anonymous": false,
      "inputs": [
        {
          "indexed": false,
          "internalType": "address",
          "name": "to",
          "type": "address"
        }
      ],
      "name": "CallExecuted",
      "type": "event"
    },
    {
      "inputs": [
        {
          "components": [
            {
              "internalType": "address",
              "name": "to",
              "type": "address"
            },
            {
              "internalType": "uint256",
              "name": "value",
              "type": "uint256"
            },
            {
              "internalType": "bytes",
              "name": "data",
              "type": "bytes"
            }
          ],
          "internalType": "struct BatchContract.Call[]",
          "name": "calls",
          "type": "tuple[]"
        }
      ],
      "name": "schedule",
      "outputs": [],
      "stateMutability": "nonpayable",
      "type": "function"
    }
  ],
  "bytecode": "0x608060405234801561001057600080fd5b506104ff806100206000396000f3fe608060405234801561001057600080fd5b506004361061002b5760003560e01c80635a67d81314610030575b600080fd5b61004a60048036038101906100459190610229565b61004c565b005b60005b82829050811015610094576100878383838181106100705761006f610276565b5b905060200281019061008291906102b4565b610099565b808060010191505061004f565b505050565b60008160000160208101906100ae919061033a565b73ffffffffffffffffffffffffffffffffffffffff1682602001358380604001906100d99190610367565b6040516100e7929190610409565b60006040518083038185875af1925050503d8060008114610124576040519150601f19603f3d011682016040523d82523d6000602084013e610129565b606091505b505090508061016d576040517f08c379a00000000000000000000000000000000000000000000000000000000081526004016101649061047f565b60405180910390fd5b7fbd09eb3fe041b894ce6fcf694ca3ae2462abb518efe86bf5810257a07e7224648260000160208101906101a1919061033a565b6040516101ae91906104ae565b60405180910390a15050565b600080fd5b600080fd5b600080fd5b600080fd5b600080fd5b60008083601f8401126101e9576101e86101c4565b5b8235905067ffffffffffffffff811115610206576102056101c9565b5b602083019150836020820283011115610222576102216101ce565b5b9250929050565b600080602083850312156102405761023f6101ba565b5b600083013567ffffffffffffffff81111561025e5761025d6101bf565b5b61026a858286016101d3565b92509250509250929050565b7f4e487b7100000000000000000000000000000000000000000000000000000000600052603260045260246000fd5b600080fd5b600080fd5b600080fd5b6000823560016060038336030381126102d0576102cf6102a5565b5b80830191505092915050565b600073ffffffffffffffffffffffffffffffffffffffff82169050919050565b6000610307826102dc565b9050919050565b610317816102fc565b811461032257600080fd5b50565b6000813590506103348161030e565b92915050565b6000602082840312156103505761034f6101ba565b5b600061035e84828501610325565b91505092915050565b60008083356001602003843603038112610384576103836102a5565b5b80840192508235915067ffffffffffffffff8211156103a6576103a56102aa565b5b6020830192506001820236038313156103c2576103c16102af565b5b509250929050565b600081905092915050565b82818337600083830152505050565b60006103f083856103ca565b93506103fd8385846103d5565b82840190509392505050565b60006104168284866103e4565b91508190509392505050565b600082825260208201905092915050565b7f43616c6c20726576657274656400000000000000000000000000000000000000600082015250565b6000610469600d83610422565b915061047482610433565b602082019050919050565b600060208201905081810360008301526104988161045c565b9050919050565b6104a8816102fc565b82525050565b60006020820190506104c3600083018461049f565b9291505056fea264697066735822122095639c020a46243df9937462a15e8ea90fc09e2c68f8b8f9ba3af1e417dfe42b64736f6c63430008180033",
  "linkReferences": {},
  "deployedLinkReferences": {}
}