{
  "_format": "hh-sol-artifact-1",
  "contractName": "BatchCallAndSponsor",
  "sourceName": "contracts/batch_transfer.sol",
  "abi": [
    {
      "inputs": [],
      "name": "ECDSAInvalidSignature",
      "type": "error"
    },
    {
      "inputs": [
        {
          "internalType": "uint256",
          "name": "length",
          "type": "uint256"
        }
      ],
      "name": "ECDSAInvalidSignatureLength",
      "type": "error"
    },
    {
      "inputs": [
        {
          "internalType": "bytes32",
          "name": "s",
          "type": "bytes32"
        }
      ],
      "name": "ECDSAInvalidSignatureS",
      "type": "error"
    },
    {
      "anonymous": false,
      "inputs": [
        {
          "indexed": true,
          "internalType": "uint256",
          "name": "nonce",
          "type": "uint256"
        },
        {
          "components": [
            {
              "internalType": "address",
              "name": "to",
              "type": "address"
            },
            {
              "internalType": "uint256",
              "name": "value",
              "type": "uint256"
            },
            {
              "internalType": "bytes",
              "name": "data",
              "type": "bytes"
            }
          ],
          "indexed": false,
          "internalType": "struct BatchCallAndSponsor.Call[]",
          "name": "calls",
          "type": "tuple[]"
        }
      ],
      "name": "BatchExecuted",
      "type": "event"
    },
    {
      "anonymous": false,
      "inputs": [
        {
          "indexed": false,
          "internalType": "address",
          "name": "called_contract",
          "type": "address"
        }
      ],
      "name": "CallExecuted",
      "type": "event"
    },
    {
      "anonymous": false,
      "inputs": [],
      "name": "FunctionInvoked",
      "type": "event"
    },
    {
      "stateMutability": "payable",
      "type": "fallback"
    },
    {
      "inputs": [
        {
          "components": [
            {
              "internalType": "address",
              "name": "to",
              "type": "address"
            },
            {
              "internalType": "uint256",
              "name": "value",
              "type": "uint256"
            },
            {
              "internalType": "bytes",
              "name": "data",
              "type": "bytes"
            }
          ],
          "internalType": "struct BatchCallAndSponsor.Call[]",
          "name": "calls",
          "type": "tuple[]"
        }
      ],
      "name": "execute",
      "outputs": [],
      "stateMutability": "payable",
      "type": "function"
    },
    {
      "inputs": [
        {
          "components": [
            {
              "internalType": "address",
              "name": "to",
              "type": "address"
            },
            {
              "internalType": "uint256",
              "name": "value",
              "type": "uint256"
            },
            {
              "internalType": "bytes",
              "name": "data",
              "type": "bytes"
            }
          ],
          "internalType": "struct BatchCallAndSponsor.Call[]",
          "name": "calls",
          "type": "tuple[]"
        },
        {
          "internalType": "uint8",
          "name": "v",
          "type": "uint8"
        },
        {
          "internalType": "bytes32",
          "name": "r",
          "type": "bytes32"
        },
        {
          "internalType": "bytes32",
          "name": "s",
          "type": "bytes32"
        }
      ],
      "name": "execute",
      "outputs": [],
      "stateMutability": "payable",
      "type": "function"
    },
    {
      "inputs": [],
      "name": "nonce",
      "outputs": [
        {
          "internalType": "uint256",
          "name": "",
          "type": "uint256"
        }
      ],
      "stateMutability": "view",
      "type": "function"
    },
    {
      "inputs": [],
      "name": "test",
      "outputs": [],
      "stateMutability": "payable",
      "type": "function"
    },
    {
      "stateMutability": "payable",
      "type": "receive"
    }
  ],
  "bytecode": "0x608060405234801561001057600080fd5b50610ee3806100206000396000f3fe6080604052600436106100435760003560e01c80633f707e6b1461004c578063affed0e014610068578063e879f86f14610093578063f8a8fd6d146100af5761004a565b3661004a57005b005b610066600480360381019061006191906106be565b6100b9565b005b34801561007457600080fd5b5061007d610135565b60405161008a9190610724565b60405180910390f35b6100ad60048036038101906100a891906107ae565b61013b565b005b6100b761022b565b005b3073ffffffffffffffffffffffffffffffffffffffff163373ffffffffffffffffffffffffffffffffffffffff1614610127576040517f08c379a000000000000000000000000000000000000000000000000000000000815260040161011e90610893565b60405180910390fd5b6101318282610259565b5050565b60005481565b7f7b722062c342dd65984258172f4a6d5a04d0cff7791adf8935a5c238725a803c60405160405180910390a16000858560405160200161017c929190610b9b565b604051602081830303815290604052905060008180519060200120905060006101a7828787876102a6565b90503073ffffffffffffffffffffffffffffffffffffffff168173ffffffffffffffffffffffffffffffffffffffff1614610217576040517f08c379a000000000000000000000000000000000000000000000000000000000815260040161020e90610c0b565b60405180910390fd5b6102218888610259565b5050505050505050565b7f7b722062c342dd65984258172f4a6d5a04d0cff7791adf8935a5c238725a803c60405160405180910390a1565b60005b828290508110156102a15761029483838381811061027d5761027c610c2b565b5b905060200281019061028f9190610c69565b6102d6565b808060010191505061025c565b505050565b6000806000806102b8888888886103f7565b9250925092506102c882826104eb565b829350505050949350505050565b60008160000160208101906102eb9190610c91565b73ffffffffffffffffffffffffffffffffffffffff1682602001358380604001906103169190610cbe565b604051610324929190610d51565b60006040518083038185875af1925050503d8060008114610361576040519150601f19603f3d011682016040523d82523d6000602084013e610366565b606091505b50509050806103aa576040517f08c379a00000000000000000000000000000000000000000000000000000000081526004016103a190610db6565b60405180910390fd5b7fbd09eb3fe041b894ce6fcf694ca3ae2462abb518efe86bf5810257a07e7224648260000160208101906103de9190610c91565b6040516103eb9190610de5565b60405180910390a15050565b60008060007f7fffffffffffffffffffffffffffffff5d576e7357a4501ddfe92f46681b20a08460001c11156104375760006003859250925092506104e1565b60006001888888886040516000815260200160405260405161045c9493929190610e1e565b6020604051602081039080840390855afa15801561047e573d6000803e3d6000fd5b505050602060405103519050600073ffffffffffffffffffffffffffffffffffffffff168173ffffffffffffffffffffffffffffffffffffffff16036104d257600060016000801b935093509350506104e1565b8060008060001b935093509350505b9450945094915050565b600060038111156104ff576104fe610e63565b5b82600381111561051257610511610e63565b5b031561064b576001600381111561052c5761052b610e63565b5b82600381111561053f5761053e610e63565b5b03610576576040517ff645eedf00000000000000000000000000000000000000000000000000000000815260040160405180910390fd5b6002600381111561058a57610589610e63565b5b82600381111561059d5761059c610e63565b5b036105e2578060001c6040517ffce698f70000000000000000000000000000000000000000000000000000000081526004016105d99190610724565b60405180910390fd5b6003808111156105f5576105f4610e63565b5b82600381111561060857610607610e63565b5b0361064a57806040517fd78bce0c0000000000000000000000000000000000000000000000000000000081526004016106419190610e92565b60405180910390fd5b5b5050565b600080fd5b600080fd5b600080fd5b600080fd5b600080fd5b60008083601f84011261067e5761067d610659565b5b8235905067ffffffffffffffff81111561069b5761069a61065e565b5b6020830191508360208202830111156106b7576106b6610663565b5b9250929050565b600080602083850312156106d5576106d461064f565b5b600083013567ffffffffffffffff8111156106f3576106f2610654565b5b6106ff85828601610668565b92509250509250929050565b6000819050919050565b61071e8161070b565b82525050565b60006020820190506107396000830184610715565b92915050565b600060ff82169050919050565b6107558161073f565b811461076057600080fd5b50565b6000813590506107728161074c565b92915050565b6000819050919050565b61078b81610778565b811461079657600080fd5b50565b6000813590506107a881610782565b92915050565b6000806000806000608086880312156107ca576107c961064f565b5b600086013567ffffffffffffffff8111156107e8576107e7610654565b5b6107f488828901610668565b9550955050602061080788828901610763565b935050604061081888828901610799565b925050606061082988828901610799565b9150509295509295909350565b600082825260208201905092915050565b7f496e76616c696420617574686f72697479000000000000000000000000000000600082015250565b600061087d601183610836565b915061088882610847565b602082019050919050565b600060208201905081810360008301526108ac81610870565b9050919050565b600082825260208201905092915050565b6000819050919050565b600073ffffffffffffffffffffffffffffffffffffffff82169050919050565b60006108f9826108ce565b9050919050565b610909816108ee565b811461091457600080fd5b50565b60008135905061092681610900565b92915050565b600061093b6020840184610917565b905092915050565b61094c816108ee565b82525050565b61095b8161070b565b811461096657600080fd5b50565b60008135905061097881610952565b92915050565b600061098d6020840184610969565b905092915050565b61099e8161070b565b82525050565b600080fd5b600080fd5b600080fd5b600080833560016020038436030381126109d0576109cf6109ae565b5b83810192508235915060208301925067ffffffffffffffff8211156109f8576109f76109a4565b5b600182023603831315610a0e57610a0d6109a9565b5b509250929050565b600082825260208201905092915050565b82818337600083830152505050565b6000601f19601f8301169050919050565b6000610a538385610a16565b9350610a60838584610a27565b610a6983610a36565b840190509392505050565b600060608301610a87600084018461092c565b610a946000860182610943565b50610aa2602084018461097e565b610aaf6020860182610995565b50610abd60408401846109b3565b8583036040870152610ad0838284610a47565b925050508091505092915050565b6000610aea8383610a74565b905092915050565b600082356001606003833603038112610b0e57610b0d6109ae565b5b82810191505092915050565b6000602082019050919050565b6000610b3383856108b3565b935083602084028501610b45846108c4565b8060005b87811015610b89578484038952610b608284610af2565b610b6a8582610ade565b9450610b7583610b1a565b925060208a01995050600181019050610b49565b50829750879450505050509392505050565b60006020820190508181036000830152610bb6818486610b27565b90509392505050565b7f496e76616c6964207369676e6174757265000000000000000000000000000000600082015250565b6000610bf5601183610836565b9150610c0082610bbf565b602082019050919050565b60006020820190508181036000830152610c2481610be8565b9050919050565b7f4e487b7100000000000000000000000000000000000000000000000000000000600052603260045260246000fd5b600080fd5b600080fd5b600080fd5b600082356001606003833603038112610c8557610c84610c5a565b5b80830191505092915050565b600060208284031215610ca757610ca661064f565b5b6000610cb584828501610917565b91505092915050565b60008083356001602003843603038112610cdb57610cda610c5a565b5b80840192508235915067ffffffffffffffff821115610cfd57610cfc610c5f565b5b602083019250600182023603831315610d1957610d18610c64565b5b509250929050565b600081905092915050565b6000610d388385610d21565b9350610d45838584610a27565b82840190509392505050565b6000610d5e828486610d2c565b91508190509392505050565b7f43616c6c20726576657274656400000000000000000000000000000000000000600082015250565b6000610da0600d83610836565b9150610dab82610d6a565b602082019050919050565b60006020820190508181036000830152610dcf81610d93565b9050919050565b610ddf816108ee565b82525050565b6000602082019050610dfa6000830184610dd6565b92915050565b610e0981610778565b82525050565b610e188161073f565b82525050565b6000608082019050610e336000830187610e00565b610e406020830186610e0f565b610e4d6040830185610e00565b610e5a6060830184610e00565b95945050505050565b7f4e487b7100000000000000000000000000000000000000000000000000000000600052602160045260246000fd5b6000602082019050610ea76000830184610e00565b9291505056fea2646970667358221220ad7f9b445a02b984837342c5c41988b1aef41934e5339e9f63b0e8b210a0946a64736f6c63430008180033",
  "linkReferences": {},
  "deployedLinkReferences": {}
}