{
  "_format": "hh-sol-artifact-1",
  "contractName": "One2ManyTransfer",
  "sourceName": "contracts/batch_transfer.sol",
  "abi": [
    {
      "inputs": [],
      "name": "ECDSAInvalidSignature",
      "type": "error"
    },
    {
      "inputs": [
        {
          "internalType": "uint256",
          "name": "length",
          "type": "uint256"
        }
      ],
      "name": "ECDSAInvalidSignatureLength",
      "type": "error"
    },
    {
      "inputs": [
        {
          "internalType": "bytes32",
          "name": "s",
          "type": "bytes32"
        }
      ],
      "name": "ECDSAInvalidSignatureS",
      "type": "error"
    },
    {
      "anonymous": false,
      "inputs": [
        {
          "indexed": false,
          "internalType": "address",
          "name": "to",
          "type": "address"
        }
      ],
      "name": "TransferExecuted",
      "type": "event"
    },
    {
      "inputs": [
        {
          "components": [
            {
              "internalType": "address",
              "name": "to",
              "type": "address"
            },
            {
              "internalType": "uint256",
              "name": "value",
              "type": "uint256"
            },
            {
              "internalType": "bytes",
              "name": "data",
              "type": "bytes"
            }
          ],
          "internalType": "struct One2ManyTransfer.Transfer[]",
          "name": "transfers",
          "type": "tuple[]"
        },
        {
          "internalType": "uint8",
          "name": "v",
          "type": "uint8"
        },
        {
          "internalType": "bytes32",
          "name": "r",
          "type": "bytes32"
        },
        {
          "internalType": "bytes32",
          "name": "s",
          "type": "bytes32"
        }
      ],
      "name": "execute_batch_transfer",
      "outputs": [],
      "stateMutability": "nonpayable",
      "type": "function"
    },
    {
      "inputs": [],
      "name": "get_nonce",
      "outputs": [
        {
          "internalType": "uint256",
          "name": "",
          "type": "uint256"
        }
      ],
      "stateMutability": "view",
      "type": "function"
    },
    {
      "inputs": [],
      "name": "nonce",
      "outputs": [
        {
          "internalType": "uint256",
          "name": "",
          "type": "uint256"
        }
      ],
      "stateMutability": "view",
      "type": "function"
    }
  ],
  "bytecode": "0x608060405234801561001057600080fd5b50610dcd806100206000396000f3fe608060405234801561001057600080fd5b50600436106100415760003560e01c8063141b5b4814610046578063ab01338014610064578063affed0e014610080575b600080fd5b61004e61009e565b60405161005b9190610586565b60405180910390f35b61007e6004803603810190610079919061067f565b6100a7565b005b6100886101be565b6040516100959190610586565b60405180910390f35b60008054905090565b6000805486866040516020016100bf939291906109ef565b60405160208183030381529060405280519060200120905060006100e5828686866101c4565b90503073ffffffffffffffffffffffffffffffffffffffff168173ffffffffffffffffffffffffffffffffffffffff1614610155576040517f08c379a000000000000000000000000000000000000000000000000000000000815260040161014c90610a7e565b60405180910390fd5b60008081548092919061016790610acd565b919050555060005b878790508110156101b4576101a78888838181106101905761018f610b15565b5b90506020028101906101a29190610b53565b6101f4565b808060010191505061016f565b5050505050505050565b60005481565b6000806000806101d688888888610315565b9250925092506101e68282610409565b829350505050949350505050565b60008160000160208101906102099190610b7b565b73ffffffffffffffffffffffffffffffffffffffff1682602001358380604001906102349190610ba8565b604051610242929190610c3b565b60006040518083038185875af1925050503d806000811461027f576040519150601f19603f3d011682016040523d82523d6000602084013e610284565b606091505b50509050806102c8576040517f08c379a00000000000000000000000000000000000000000000000000000000081526004016102bf90610ca0565b60405180910390fd5b7fc51a4c9955e7f8ddf6dbb1adb2075f1e98be020df5b7d4a35016b21769b4f9dc8260000160208101906102fc9190610b7b565b6040516103099190610ccf565b60405180910390a15050565b60008060007f7fffffffffffffffffffffffffffffff5d576e7357a4501ddfe92f46681b20a08460001c11156103555760006003859250925092506103ff565b60006001888888886040516000815260200160405260405161037a9493929190610d08565b6020604051602081039080840390855afa15801561039c573d6000803e3d6000fd5b505050602060405103519050600073ffffffffffffffffffffffffffffffffffffffff168173ffffffffffffffffffffffffffffffffffffffff16036103f057600060016000801b935093509350506103ff565b8060008060001b935093509350505b9450945094915050565b6000600381111561041d5761041c610d4d565b5b8260038111156104305761042f610d4d565b5b0315610569576001600381111561044a57610449610d4d565b5b82600381111561045d5761045c610d4d565b5b03610494576040517ff645eedf00000000000000000000000000000000000000000000000000000000815260040160405180910390fd5b600260038111156104a8576104a7610d4d565b5b8260038111156104bb576104ba610d4d565b5b03610500578060001c6040517ffce698f70000000000000000000000000000000000000000000000000000000081526004016104f79190610586565b60405180910390fd5b60038081111561051357610512610d4d565b5b82600381111561052657610525610d4d565b5b0361056857806040517fd78bce0c00000000000000000000000000000000000000000000000000000000815260040161055f9190610d7c565b60405180910390fd5b5b5050565b6000819050919050565b6105808161056d565b82525050565b600060208201905061059b6000830184610577565b92915050565b600080fd5b600080fd5b600080fd5b600080fd5b600080fd5b60008083601f8401126105d0576105cf6105ab565b5b8235905067ffffffffffffffff8111156105ed576105ec6105b0565b5b602083019150836020820283011115610609576106086105b5565b5b9250929050565b600060ff82169050919050565b61062681610610565b811461063157600080fd5b50565b6000813590506106438161061d565b92915050565b6000819050919050565b61065c81610649565b811461066757600080fd5b50565b60008135905061067981610653565b92915050565b60008060008060006080868803121561069b5761069a6105a1565b5b600086013567ffffffffffffffff8111156106b9576106b86105a6565b5b6106c5888289016105ba565b955095505060206106d888828901610634565b93505060406106e98882890161066a565b92505060606106fa8882890161066a565b9150509295509295909350565b600082825260208201905092915050565b6000819050919050565b600073ffffffffffffffffffffffffffffffffffffffff82169050919050565b600061074d82610722565b9050919050565b61075d81610742565b811461076857600080fd5b50565b60008135905061077a81610754565b92915050565b600061078f602084018461076b565b905092915050565b6107a081610742565b82525050565b6107af8161056d565b81146107ba57600080fd5b50565b6000813590506107cc816107a6565b92915050565b60006107e160208401846107bd565b905092915050565b6107f28161056d565b82525050565b600080fd5b600080fd5b600080fd5b6000808335600160200384360303811261082457610823610802565b5b83810192508235915060208301925067ffffffffffffffff82111561084c5761084b6107f8565b5b600182023603831315610862576108616107fd565b5b509250929050565b600082825260208201905092915050565b82818337600083830152505050565b6000601f19601f8301169050919050565b60006108a7838561086a565b93506108b483858461087b565b6108bd8361088a565b840190509392505050565b6000606083016108db6000840184610780565b6108e86000860182610797565b506108f660208401846107d2565b61090360208601826107e9565b506109116040840184610807565b858303604087015261092483828461089b565b925050508091505092915050565b600061093e83836108c8565b905092915050565b60008235600160600383360303811261096257610961610802565b5b82810191505092915050565b6000602082019050919050565b60006109878385610707565b93508360208402850161099984610718565b8060005b878110156109dd5784840389526109b48284610946565b6109be8582610932565b94506109c98361096e565b925060208a0199505060018101905061099d565b50829750879450505050509392505050565b6000604082019050610a046000830186610577565b8181036020830152610a1781848661097b565b9050949350505050565b600082825260208201905092915050565b7f496e76616c6964207369676e6174757265000000000000000000000000000000600082015250565b6000610a68601183610a21565b9150610a7382610a32565b602082019050919050565b60006020820190508181036000830152610a9781610a5b565b9050919050565b7f4e487b7100000000000000000000000000000000000000000000000000000000600052601160045260246000fd5b6000610ad88261056d565b91507fffffffffffffffffffffffffffffffffffffffffffffffffffffffffffffffff8203610b0a57610b09610a9e565b5b600182019050919050565b7f4e487b7100000000000000000000000000000000000000000000000000000000600052603260045260246000fd5b600080fd5b600080fd5b600080fd5b600082356001606003833603038112610b6f57610b6e610b44565b5b80830191505092915050565b600060208284031215610b9157610b906105a1565b5b6000610b9f8482850161076b565b91505092915050565b60008083356001602003843603038112610bc557610bc4610b44565b5b80840192508235915067ffffffffffffffff821115610be757610be6610b49565b5b602083019250600182023603831315610c0357610c02610b4e565b5b509250929050565b600081905092915050565b6000610c228385610c0b565b9350610c2f83858461087b565b82840190509392505050565b6000610c48828486610c16565b91508190509392505050565b7f5472616e73666572207265766572746564000000000000000000000000000000600082015250565b6000610c8a601183610a21565b9150610c9582610c54565b602082019050919050565b60006020820190508181036000830152610cb981610c7d565b9050919050565b610cc981610742565b82525050565b6000602082019050610ce46000830184610cc0565b92915050565b610cf381610649565b82525050565b610d0281610610565b82525050565b6000608082019050610d1d6000830187610cea565b610d2a6020830186610cf9565b610d376040830185610cea565b610d446060830184610cea565b95945050505050565b7f4e487b7100000000000000000000000000000000000000000000000000000000600052602160045260246000fd5b6000602082019050610d916000830184610cea565b9291505056fea2646970667358221220ffe1260ad8dad67b86de3235d33188bb6d15fa4f822a13078f94711d93fec07464736f6c63430008180033",
  "linkReferences": {},
  "deployedLinkReferences": {}
}