{
  "_format": "hh-sol-artifact-1",
  "contractName": "One2ManyTransfer",
  "sourceName": "contracts/batch_transfer.sol",
  "abi": [
    {
      "inputs": [],
      "stateMutability": "nonpayable",
      "type": "constructor"
    },
    {
      "inputs": [],
      "name": "ECDSAInvalidSignature",
      "type": "error"
    },
    {
      "inputs": [
        {
          "internalType": "uint256",
          "name": "length",
          "type": "uint256"
        }
      ],
      "name": "ECDSAInvalidSignatureLength",
      "type": "error"
    },
    {
      "inputs": [
        {
          "internalType": "bytes32",
          "name": "s",
          "type": "bytes32"
        }
      ],
      "name": "ECDSAInvalidSignatureS",
      "type": "error"
    },
    {
      "anonymous": false,
      "inputs": [
        {
          "indexed": false,
          "internalType": "address",
          "name": "to",
          "type": "address"
        }
      ],
      "name": "TransferExecuted",
      "type": "event"
    },
    {
      "inputs": [
        {
          "components": [
            {
              "internalType": "address",
              "name": "to",
              "type": "address"
            },
            {
              "internalType": "uint256",
              "name": "value",
              "type": "uint256"
            },
            {
              "internalType": "bytes",
              "name": "data",
              "type": "bytes"
            }
          ],
          "internalType": "struct One2ManyTransfer.Transfer[]",
          "name": "transfers",
          "type": "tuple[]"
        },
        {
          "internalType": "uint8",
          "name": "v",
          "type": "uint8"
        },
        {
          "internalType": "bytes32",
          "name": "r",
          "type": "bytes32"
        },
        {
          "internalType": "bytes32",
          "name": "s",
          "type": "bytes32"
        }
      ],
      "name": "execute_batch_transfer",
      "outputs": [],
      "stateMutability": "nonpayable",
      "type": "function"
    },
    {
      "inputs": [],
      "name": "get_nonce",
      "outputs": [
        {
          "internalType": "uint256",
          "name": "",
          "type": "uint256"
        }
      ],
      "stateMutability": "view",
      "type": "function"
    },
    {
      "inputs": [],
      "name": "nonce",
      "outputs": [
        {
          "internalType": "uint256",
          "name": "",
          "type": "uint256"
        }
      ],
      "stateMutability": "view",
      "type": "function"
    },
    {
      "inputs": [
        {
          "internalType": "uint256",
          "name": "_nonce",
          "type": "uint256"
        }
      ],
      "name": "set_nonce",
      "outputs": [],
      "stateMutability": "nonpayable",
      "type": "function"
    }
  ],
  "bytecode": "0x608060405234801561001057600080fd5b5060008081905550610ef4806100276000396000f3fe608060405234801561001057600080fd5b506004361061004c5760003560e01c8063141b5b4814610051578063ab0133801461006f578063affed0e01461008b578063d695967d146100a9575b600080fd5b6100596100c5565b6040516100669190610622565b60405180910390f35b6100896004803603810190610084919061071b565b6100ce565b005b6100936101e2565b6040516100a09190610622565b60405180910390f35b6100c360048036038101906100be91906107cf565b6101e8565b005b60008054905090565b600085856040516020016100e3929190610ab8565b604051602081830303815290604052805190602001209050600061010982868686610260565b90503073ffffffffffffffffffffffffffffffffffffffff168173ffffffffffffffffffffffffffffffffffffffff1614610179576040517f08c379a000000000000000000000000000000000000000000000000000000000815260040161017090610b39565b60405180910390fd5b60008081548092919061018b90610b88565b919050555060005b878790508110156101d8576101cb8888838181106101b4576101b3610bd0565b5b90506020028101906101c69190610c0e565b610290565b8080600101915050610193565b5050505050505050565b60005481565b3073ffffffffffffffffffffffffffffffffffffffff163373ffffffffffffffffffffffffffffffffffffffff1614610256576040517f08c379a000000000000000000000000000000000000000000000000000000000815260040161024d90610c82565b60405180910390fd5b8060008190555050565b600080600080610272888888886103b1565b92509250925061028282826104a5565b829350505050949350505050565b60008160000160208101906102a59190610ca2565b73ffffffffffffffffffffffffffffffffffffffff1682602001358380604001906102d09190610ccf565b6040516102de929190610d62565b60006040518083038185875af1925050503d806000811461031b576040519150601f19603f3d011682016040523d82523d6000602084013e610320565b606091505b5050905080610364576040517f08c379a000000000000000000000000000000000000000000000000000000000815260040161035b90610dc7565b60405180910390fd5b7fc51a4c9955e7f8ddf6dbb1adb2075f1e98be020df5b7d4a35016b21769b4f9dc8260000160208101906103989190610ca2565b6040516103a59190610df6565b60405180910390a15050565b60008060007f7fffffffffffffffffffffffffffffff5d576e7357a4501ddfe92f46681b20a08460001c11156103f157600060038592509250925061049b565b6000600188888888604051600081526020016040526040516104169493929190610e2f565b6020604051602081039080840390855afa158015610438573d6000803e3d6000fd5b505050602060405103519050600073ffffffffffffffffffffffffffffffffffffffff168173ffffffffffffffffffffffffffffffffffffffff160361048c57600060016000801b9350935093505061049b565b8060008060001b935093509350505b9450945094915050565b600060038111156104b9576104b8610e74565b5b8260038111156104cc576104cb610e74565b5b031561060557600160038111156104e6576104e5610e74565b5b8260038111156104f9576104f8610e74565b5b03610530576040517ff645eedf00000000000000000000000000000000000000000000000000000000815260040160405180910390fd5b6002600381111561054457610543610e74565b5b82600381111561055757610556610e74565b5b0361059c578060001c6040517ffce698f70000000000000000000000000000000000000000000000000000000081526004016105939190610622565b60405180910390fd5b6003808111156105af576105ae610e74565b5b8260038111156105c2576105c1610e74565b5b0361060457806040517fd78bce0c0000000000000000000000000000000000000000000000000000000081526004016105fb9190610ea3565b60405180910390fd5b5b5050565b6000819050919050565b61061c81610609565b82525050565b60006020820190506106376000830184610613565b92915050565b600080fd5b600080fd5b600080fd5b600080fd5b600080fd5b60008083601f84011261066c5761066b610647565b5b8235905067ffffffffffffffff8111156106895761068861064c565b5b6020830191508360208202830111156106a5576106a4610651565b5b9250929050565b600060ff82169050919050565b6106c2816106ac565b81146106cd57600080fd5b50565b6000813590506106df816106b9565b92915050565b6000819050919050565b6106f8816106e5565b811461070357600080fd5b50565b600081359050610715816106ef565b92915050565b6000806000806000608086880312156107375761073661063d565b5b600086013567ffffffffffffffff81111561075557610754610642565b5b61076188828901610656565b95509550506020610774888289016106d0565b935050604061078588828901610706565b925050606061079688828901610706565b9150509295509295909350565b6107ac81610609565b81146107b757600080fd5b50565b6000813590506107c9816107a3565b92915050565b6000602082840312156107e5576107e461063d565b5b60006107f3848285016107ba565b91505092915050565b600082825260208201905092915050565b6000819050919050565b600073ffffffffffffffffffffffffffffffffffffffff82169050919050565b600061084282610817565b9050919050565b61085281610837565b811461085d57600080fd5b50565b60008135905061086f81610849565b92915050565b60006108846020840184610860565b905092915050565b61089581610837565b82525050565b60006108aa60208401846107ba565b905092915050565b6108bb81610609565b82525050565b600080fd5b600080fd5b600080fd5b600080833560016020038436030381126108ed576108ec6108cb565b5b83810192508235915060208301925067ffffffffffffffff821115610915576109146108c1565b5b60018202360383131561092b5761092a6108c6565b5b509250929050565b600082825260208201905092915050565b82818337600083830152505050565b6000601f19601f8301169050919050565b60006109708385610933565b935061097d838584610944565b61098683610953565b840190509392505050565b6000606083016109a46000840184610875565b6109b1600086018261088c565b506109bf602084018461089b565b6109cc60208601826108b2565b506109da60408401846108d0565b85830360408701526109ed838284610964565b925050508091505092915050565b6000610a078383610991565b905092915050565b600082356001606003833603038112610a2b57610a2a6108cb565b5b82810191505092915050565b6000602082019050919050565b6000610a5083856107fc565b935083602084028501610a628461080d565b8060005b87811015610aa6578484038952610a7d8284610a0f565b610a8785826109fb565b9450610a9283610a37565b925060208a01995050600181019050610a66565b50829750879450505050509392505050565b60006020820190508181036000830152610ad3818486610a44565b90509392505050565b600082825260208201905092915050565b7f496e76616c6964207369676e6174757265000000000000000000000000000000600082015250565b6000610b23601183610adc565b9150610b2e82610aed565b602082019050919050565b60006020820190508181036000830152610b5281610b16565b9050919050565b7f4e487b7100000000000000000000000000000000000000000000000000000000600052601160045260246000fd5b6000610b9382610609565b91507fffffffffffffffffffffffffffffffffffffffffffffffffffffffffffffffff8203610bc557610bc4610b59565b5b600182019050919050565b7f4e487b7100000000000000000000000000000000000000000000000000000000600052603260045260246000fd5b600080fd5b600080fd5b600080fd5b600082356001606003833603038112610c2a57610c29610bff565b5b80830191505092915050565b7f4163636573732064656e69656400000000000000000000000000000000000000600082015250565b6000610c6c600d83610adc565b9150610c7782610c36565b602082019050919050565b60006020820190508181036000830152610c9b81610c5f565b9050919050565b600060208284031215610cb857610cb761063d565b5b6000610cc684828501610860565b91505092915050565b60008083356001602003843603038112610cec57610ceb610bff565b5b80840192508235915067ffffffffffffffff821115610d0e57610d0d610c04565b5b602083019250600182023603831315610d2a57610d29610c09565b5b509250929050565b600081905092915050565b6000610d498385610d32565b9350610d56838584610944565b82840190509392505050565b6000610d6f828486610d3d565b91508190509392505050565b7f5472616e73666572207265766572746564000000000000000000000000000000600082015250565b6000610db1601183610adc565b9150610dbc82610d7b565b602082019050919050565b60006020820190508181036000830152610de081610da4565b9050919050565b610df081610837565b82525050565b6000602082019050610e0b6000830184610de7565b92915050565b610e1a816106e5565b82525050565b610e29816106ac565b82525050565b6000608082019050610e446000830187610e11565b610e516020830186610e20565b610e5e6040830185610e11565b610e6b6060830184610e11565b95945050505050565b7f4e487b7100000000000000000000000000000000000000000000000000000000600052602160045260246000fd5b6000602082019050610eb86000830184610e11565b9291505056fea264697066735822122071dcbfae31464b118d628590a31c1144d03b6fb6c855c3f0b73de46759a41f2564736f6c63430008180033",
  "linkReferences": {},
  "deployedLinkReferences": {}
}