{
  "_format": "hh-sol-artifact-1",
  "contractName": "One2ManyTransfer",
  "sourceName": "contracts/batch_transfer.sol",
  "abi": [
    {
      "inputs": [],
      "name": "ECDSAInvalidSignature",
      "type": "error"
    },
    {
      "inputs": [
        {
          "internalType": "uint256",
          "name": "length",
          "type": "uint256"
        }
      ],
      "name": "ECDSAInvalidSignatureLength",
      "type": "error"
    },
    {
      "inputs": [
        {
          "internalType": "bytes32",
          "name": "s",
          "type": "bytes32"
        }
      ],
      "name": "ECDSAInvalidSignatureS",
      "type": "error"
    },
    {
      "anonymous": false,
      "inputs": [
        {
          "indexed": false,
          "internalType": "address",
          "name": "to",
          "type": "address"
        }
      ],
      "name": "TransferExecuted",
      "type": "event"
    },
    {
      "stateMutability": "payable",
      "type": "fallback"
    },
    {
      "inputs": [
        {
          "components": [
            {
              "internalType": "address",
              "name": "to",
              "type": "address"
            },
            {
              "internalType": "uint256",
              "name": "value",
              "type": "uint256"
            },
            {
              "internalType": "bytes",
              "name": "data",
              "type": "bytes"
            }
          ],
          "internalType": "struct One2ManyTransfer.Transfer[]",
          "name": "transfers",
          "type": "tuple[]"
        },
        {
          "internalType": "uint8",
          "name": "v",
          "type": "uint8"
        },
        {
          "internalType": "bytes32",
          "name": "r",
          "type": "bytes32"
        },
        {
          "internalType": "bytes32",
          "name": "s",
          "type": "bytes32"
        }
      ],
      "name": "execute_batch_transfer",
      "outputs": [],
      "stateMutability": "nonpayable",
      "type": "function"
    },
    {
      "inputs": [],
      "name": "get_nonce",
      "outputs": [
        {
          "internalType": "uint256",
          "name": "",
          "type": "uint256"
        }
      ],
      "stateMutability": "view",
      "type": "function"
    },
    {
      "inputs": [],
      "name": "nonce",
      "outputs": [
        {
          "internalType": "uint256",
          "name": "",
          "type": "uint256"
        }
      ],
      "stateMutability": "view",
      "type": "function"
    },
    {
      "stateMutability": "payable",
      "type": "receive"
    }
  ],
  "bytecode": "0x608060405234801561001057600080fd5b50610def806100206000396000f3fe6080604052600436106100385760003560e01c8063141b5b4814610041578063ab0133801461006c578063affed0e0146100955761003f565b3661003f57005b005b34801561004d57600080fd5b506100566100c0565b60405161006391906105a8565b60405180910390f35b34801561007857600080fd5b50610093600480360381019061008e91906106a1565b6100c9565b005b3480156100a157600080fd5b506100aa6101e0565b6040516100b791906105a8565b60405180910390f35b60008054905090565b6000805486866040516020016100e193929190610a11565b6040516020818303038152906040528051906020012090506000610107828686866101e6565b90503073ffffffffffffffffffffffffffffffffffffffff168173ffffffffffffffffffffffffffffffffffffffff1614610177576040517f08c379a000000000000000000000000000000000000000000000000000000000815260040161016e90610aa0565b60405180910390fd5b60008081548092919061018990610aef565b919050555060005b878790508110156101d6576101c98888838181106101b2576101b1610b37565b5b90506020028101906101c49190610b75565b610216565b8080600101915050610191565b5050505050505050565b60005481565b6000806000806101f888888888610337565b925092509250610208828261042b565b829350505050949350505050565b600081600001602081019061022b9190610b9d565b73ffffffffffffffffffffffffffffffffffffffff1682602001358380604001906102569190610bca565b604051610264929190610c5d565b60006040518083038185875af1925050503d80600081146102a1576040519150601f19603f3d011682016040523d82523d6000602084013e6102a6565b606091505b50509050806102ea576040517f08c379a00000000000000000000000000000000000000000000000000000000081526004016102e190610cc2565b60405180910390fd5b7fc51a4c9955e7f8ddf6dbb1adb2075f1e98be020df5b7d4a35016b21769b4f9dc82600001602081019061031e9190610b9d565b60405161032b9190610cf1565b60405180910390a15050565b60008060007f7fffffffffffffffffffffffffffffff5d576e7357a4501ddfe92f46681b20a08460001c1115610377576000600385925092509250610421565b60006001888888886040516000815260200160405260405161039c9493929190610d2a565b6020604051602081039080840390855afa1580156103be573d6000803e3d6000fd5b505050602060405103519050600073ffffffffffffffffffffffffffffffffffffffff168173ffffffffffffffffffffffffffffffffffffffff160361041257600060016000801b93509350935050610421565b8060008060001b935093509350505b9450945094915050565b6000600381111561043f5761043e610d6f565b5b82600381111561045257610451610d6f565b5b031561058b576001600381111561046c5761046b610d6f565b5b82600381111561047f5761047e610d6f565b5b036104b6576040517ff645eedf00000000000000000000000000000000000000000000000000000000815260040160405180910390fd5b600260038111156104ca576104c9610d6f565b5b8260038111156104dd576104dc610d6f565b5b03610522578060001c6040517ffce698f700000000000000000000000000000000000000000000000000000000815260040161051991906105a8565b60405180910390fd5b60038081111561053557610534610d6f565b5b82600381111561054857610547610d6f565b5b0361058a57806040517fd78bce0c0000000000000000000000000000000000000000000000000000000081526004016105819190610d9e565b60405180910390fd5b5b5050565b6000819050919050565b6105a28161058f565b82525050565b60006020820190506105bd6000830184610599565b92915050565b600080fd5b600080fd5b600080fd5b600080fd5b600080fd5b60008083601f8401126105f2576105f16105cd565b5b8235905067ffffffffffffffff81111561060f5761060e6105d2565b5b60208301915083602082028301111561062b5761062a6105d7565b5b9250929050565b600060ff82169050919050565b61064881610632565b811461065357600080fd5b50565b6000813590506106658161063f565b92915050565b6000819050919050565b61067e8161066b565b811461068957600080fd5b50565b60008135905061069b81610675565b92915050565b6000806000806000608086880312156106bd576106bc6105c3565b5b600086013567ffffffffffffffff8111156106db576106da6105c8565b5b6106e7888289016105dc565b955095505060206106fa88828901610656565b935050604061070b8882890161068c565b925050606061071c8882890161068c565b9150509295509295909350565b600082825260208201905092915050565b6000819050919050565b600073ffffffffffffffffffffffffffffffffffffffff82169050919050565b600061076f82610744565b9050919050565b61077f81610764565b811461078a57600080fd5b50565b60008135905061079c81610776565b92915050565b60006107b1602084018461078d565b905092915050565b6107c281610764565b82525050565b6107d18161058f565b81146107dc57600080fd5b50565b6000813590506107ee816107c8565b92915050565b600061080360208401846107df565b905092915050565b6108148161058f565b82525050565b600080fd5b600080fd5b600080fd5b6000808335600160200384360303811261084657610845610824565b5b83810192508235915060208301925067ffffffffffffffff82111561086e5761086d61081a565b5b6001820236038313156108845761088361081f565b5b509250929050565b600082825260208201905092915050565b82818337600083830152505050565b6000601f19601f8301169050919050565b60006108c9838561088c565b93506108d683858461089d565b6108df836108ac565b840190509392505050565b6000606083016108fd60008401846107a2565b61090a60008601826107b9565b5061091860208401846107f4565b610925602086018261080b565b506109336040840184610829565b85830360408701526109468382846108bd565b925050508091505092915050565b600061096083836108ea565b905092915050565b60008235600160600383360303811261098457610983610824565b5b82810191505092915050565b6000602082019050919050565b60006109a98385610729565b9350836020840285016109bb8461073a565b8060005b878110156109ff5784840389526109d68284610968565b6109e08582610954565b94506109eb83610990565b925060208a019950506001810190506109bf565b50829750879450505050509392505050565b6000604082019050610a266000830186610599565b8181036020830152610a3981848661099d565b9050949350505050565b600082825260208201905092915050565b7f496e76616c6964207369676e6174757265000000000000000000000000000000600082015250565b6000610a8a601183610a43565b9150610a9582610a54565b602082019050919050565b60006020820190508181036000830152610ab981610a7d565b9050919050565b7f4e487b7100000000000000000000000000000000000000000000000000000000600052601160045260246000fd5b6000610afa8261058f565b91507fffffffffffffffffffffffffffffffffffffffffffffffffffffffffffffffff8203610b2c57610b2b610ac0565b5b600182019050919050565b7f4e487b7100000000000000000000000000000000000000000000000000000000600052603260045260246000fd5b600080fd5b600080fd5b600080fd5b600082356001606003833603038112610b9157610b90610b66565b5b80830191505092915050565b600060208284031215610bb357610bb26105c3565b5b6000610bc18482850161078d565b91505092915050565b60008083356001602003843603038112610be757610be6610b66565b5b80840192508235915067ffffffffffffffff821115610c0957610c08610b6b565b5b602083019250600182023603831315610c2557610c24610b70565b5b509250929050565b600081905092915050565b6000610c448385610c2d565b9350610c5183858461089d565b82840190509392505050565b6000610c6a828486610c38565b91508190509392505050565b7f5472616e73666572207265766572746564000000000000000000000000000000600082015250565b6000610cac601183610a43565b9150610cb782610c76565b602082019050919050565b60006020820190508181036000830152610cdb81610c9f565b9050919050565b610ceb81610764565b82525050565b6000602082019050610d066000830184610ce2565b92915050565b610d158161066b565b82525050565b610d2481610632565b82525050565b6000608082019050610d3f6000830187610d0c565b610d4c6020830186610d1b565b610d596040830185610d0c565b610d666060830184610d0c565b95945050505050565b7f4e487b7100000000000000000000000000000000000000000000000000000000600052602160045260246000fd5b6000602082019050610db36000830184610d0c565b9291505056fea26469706673582212200fbdb5faf3638cd8da0824e671e949f002bb7f8b94d4856042f4138b1abbaf7a64736f6c63430008180033",
  "linkReferences": {},
  "deployedLinkReferences": {}
}