{
  "_format": "hh-sol-artifact-1",
  "contractName": "One2ManyTransfer",
  "sourceName": "contracts/batch_transfer.sol",
  "abi": [
    {
      "inputs": [],
      "name": "ECDSAInvalidSignature",
      "type": "error"
    },
    {
      "inputs": [
        {
          "internalType": "uint256",
          "name": "length",
          "type": "uint256"
        }
      ],
      "name": "ECDSAInvalidSignatureLength",
      "type": "error"
    },
    {
      "inputs": [
        {
          "internalType": "bytes32",
          "name": "s",
          "type": "bytes32"
        }
      ],
      "name": "ECDSAInvalidSignatureS",
      "type": "error"
    },
    {
      "anonymous": false,
      "inputs": [
        {
          "indexed": false,
          "internalType": "address",
          "name": "to",
          "type": "address"
        }
      ],
      "name": "TransferExecuted",
      "type": "event"
    },
    {
      "inputs": [
        {
          "components": [
            {
              "internalType": "address",
              "name": "to",
              "type": "address"
            },
            {
              "internalType": "uint256",
              "name": "value",
              "type": "uint256"
            },
            {
              "internalType": "bytes",
              "name": "data",
              "type": "bytes"
            }
          ],
          "internalType": "struct One2ManyTransfer.Transfer[]",
          "name": "transfers",
          "type": "tuple[]"
        },
        {
          "internalType": "uint8",
          "name": "v",
          "type": "uint8"
        },
        {
          "internalType": "bytes32",
          "name": "r",
          "type": "bytes32"
        },
        {
          "internalType": "bytes32",
          "name": "s",
          "type": "bytes32"
        }
      ],
      "name": "execute_batch_transfer",
      "outputs": [],
      "stateMutability": "nonpayable",
      "type": "function"
    },
    {
      "inputs": [],
      "name": "nonce",
      "outputs": [
        {
          "internalType": "uint256",
          "name": "",
          "type": "uint256"
        }
      ],
      "stateMutability": "view",
      "type": "function"
    }
  ],
  "bytecode": "0x608060405234801561001057600080fd5b50610d8a806100206000396000f3fe608060405234801561001057600080fd5b50600436106100365760003560e01c8063ab0133801461003b578063affed0e014610057575b600080fd5b61005560048036038101906100509190610616565b610075565b005b61005f610189565b60405161006c91906106b7565b60405180910390f35b6000858560405160200161008a9291906109ba565b60405160208183030381529060405280519060200120905060006100b08286868661018f565b90503073ffffffffffffffffffffffffffffffffffffffff168173ffffffffffffffffffffffffffffffffffffffff1614610120576040517f08c379a000000000000000000000000000000000000000000000000000000000815260040161011790610a3b565b60405180910390fd5b60008081548092919061013290610a8a565b919050555060005b8787905081101561017f5761017288888381811061015b5761015a610ad2565b5b905060200281019061016d9190610b10565b6101bf565b808060010191505061013a565b5050505050505050565b60005481565b6000806000806101a1888888886102e0565b9250925092506101b182826103d4565b829350505050949350505050565b60008160000160208101906101d49190610b38565b73ffffffffffffffffffffffffffffffffffffffff1682602001358380604001906101ff9190610b65565b60405161020d929190610bf8565b60006040518083038185875af1925050503d806000811461024a576040519150601f19603f3d011682016040523d82523d6000602084013e61024f565b606091505b5050905080610293576040517f08c379a000000000000000000000000000000000000000000000000000000000815260040161028a90610c5d565b60405180910390fd5b7fc51a4c9955e7f8ddf6dbb1adb2075f1e98be020df5b7d4a35016b21769b4f9dc8260000160208101906102c79190610b38565b6040516102d49190610c8c565b60405180910390a15050565b60008060007f7fffffffffffffffffffffffffffffff5d576e7357a4501ddfe92f46681b20a08460001c11156103205760006003859250925092506103ca565b6000600188888888604051600081526020016040526040516103459493929190610cc5565b6020604051602081039080840390855afa158015610367573d6000803e3d6000fd5b505050602060405103519050600073ffffffffffffffffffffffffffffffffffffffff168173ffffffffffffffffffffffffffffffffffffffff16036103bb57600060016000801b935093509350506103ca565b8060008060001b935093509350505b9450945094915050565b600060038111156103e8576103e7610d0a565b5b8260038111156103fb576103fa610d0a565b5b0315610534576001600381111561041557610414610d0a565b5b82600381111561042857610427610d0a565b5b0361045f576040517ff645eedf00000000000000000000000000000000000000000000000000000000815260040160405180910390fd5b6002600381111561047357610472610d0a565b5b82600381111561048657610485610d0a565b5b036104cb578060001c6040517ffce698f70000000000000000000000000000000000000000000000000000000081526004016104c291906106b7565b60405180910390fd5b6003808111156104de576104dd610d0a565b5b8260038111156104f1576104f0610d0a565b5b0361053357806040517fd78bce0c00000000000000000000000000000000000000000000000000000000815260040161052a9190610d39565b60405180910390fd5b5b5050565b600080fd5b600080fd5b600080fd5b600080fd5b600080fd5b60008083601f84011261056757610566610542565b5b8235905067ffffffffffffffff81111561058457610583610547565b5b6020830191508360208202830111156105a05761059f61054c565b5b9250929050565b600060ff82169050919050565b6105bd816105a7565b81146105c857600080fd5b50565b6000813590506105da816105b4565b92915050565b6000819050919050565b6105f3816105e0565b81146105fe57600080fd5b50565b600081359050610610816105ea565b92915050565b60008060008060006080868803121561063257610631610538565b5b600086013567ffffffffffffffff8111156106505761064f61053d565b5b61065c88828901610551565b9550955050602061066f888289016105cb565b935050604061068088828901610601565b925050606061069188828901610601565b9150509295509295909350565b6000819050919050565b6106b18161069e565b82525050565b60006020820190506106cc60008301846106a8565b92915050565b600082825260208201905092915050565b6000819050919050565b600073ffffffffffffffffffffffffffffffffffffffff82169050919050565b6000610718826106ed565b9050919050565b6107288161070d565b811461073357600080fd5b50565b6000813590506107458161071f565b92915050565b600061075a6020840184610736565b905092915050565b61076b8161070d565b82525050565b61077a8161069e565b811461078557600080fd5b50565b60008135905061079781610771565b92915050565b60006107ac6020840184610788565b905092915050565b6107bd8161069e565b82525050565b600080fd5b600080fd5b600080fd5b600080833560016020038436030381126107ef576107ee6107cd565b5b83810192508235915060208301925067ffffffffffffffff821115610817576108166107c3565b5b60018202360383131561082d5761082c6107c8565b5b509250929050565b600082825260208201905092915050565b82818337600083830152505050565b6000601f19601f8301169050919050565b60006108728385610835565b935061087f838584610846565b61088883610855565b840190509392505050565b6000606083016108a6600084018461074b565b6108b36000860182610762565b506108c1602084018461079d565b6108ce60208601826107b4565b506108dc60408401846107d2565b85830360408701526108ef838284610866565b925050508091505092915050565b60006109098383610893565b905092915050565b60008235600160600383360303811261092d5761092c6107cd565b5b82810191505092915050565b6000602082019050919050565b600061095283856106d2565b935083602084028501610964846106e3565b8060005b878110156109a857848403895261097f8284610911565b61098985826108fd565b945061099483610939565b925060208a01995050600181019050610968565b50829750879450505050509392505050565b600060208201905081810360008301526109d5818486610946565b90509392505050565b600082825260208201905092915050565b7f496e76616c6964207369676e6174757265000000000000000000000000000000600082015250565b6000610a256011836109de565b9150610a30826109ef565b602082019050919050565b60006020820190508181036000830152610a5481610a18565b9050919050565b7f4e487b7100000000000000000000000000000000000000000000000000000000600052601160045260246000fd5b6000610a958261069e565b91507fffffffffffffffffffffffffffffffffffffffffffffffffffffffffffffffff8203610ac757610ac6610a5b565b5b600182019050919050565b7f4e487b7100000000000000000000000000000000000000000000000000000000600052603260045260246000fd5b600080fd5b600080fd5b600080fd5b600082356001606003833603038112610b2c57610b2b610b01565b5b80830191505092915050565b600060208284031215610b4e57610b4d610538565b5b6000610b5c84828501610736565b91505092915050565b60008083356001602003843603038112610b8257610b81610b01565b5b80840192508235915067ffffffffffffffff821115610ba457610ba3610b06565b5b602083019250600182023603831315610bc057610bbf610b0b565b5b509250929050565b600081905092915050565b6000610bdf8385610bc8565b9350610bec838584610846565b82840190509392505050565b6000610c05828486610bd3565b91508190509392505050565b7f5472616e73666572207265766572746564000000000000000000000000000000600082015250565b6000610c476011836109de565b9150610c5282610c11565b602082019050919050565b60006020820190508181036000830152610c7681610c3a565b9050919050565b610c868161070d565b82525050565b6000602082019050610ca16000830184610c7d565b92915050565b610cb0816105e0565b82525050565b610cbf816105a7565b82525050565b6000608082019050610cda6000830187610ca7565b610ce76020830186610cb6565b610cf46040830185610ca7565b610d016060830184610ca7565b95945050505050565b7f4e487b7100000000000000000000000000000000000000000000000000000000600052602160045260246000fd5b6000602082019050610d4e6000830184610ca7565b9291505056fea2646970667358221220f43ae54b92f0152bc695a7137c83980e7c43ab1062027949a1e40d8c5710e04664736f6c63430008180033",
  "linkReferences": {},
  "deployedLinkReferences": {}
}