{
  "_format": "hh-sol-artifact-1",
  "contractName": "TransferContract",
  "sourceName": "contracts/transfer.sol",
  "abi": [
    {
      "inputs": [],
      "name": "ECDSAInvalidSignature",
      "type": "error"
    },
    {
      "inputs": [
        {
          "internalType": "uint256",
          "name": "length",
          "type": "uint256"
        }
      ],
      "name": "ECDSAInvalidSignatureLength",
      "type": "error"
    },
    {
      "inputs": [
        {
          "internalType": "bytes32",
          "name": "s",
          "type": "bytes32"
        }
      ],
      "name": "ECDSAInvalidSignatureS",
      "type": "error"
    },
    {
      "anonymous": false,
      "inputs": [
        {
          "indexed": false,
          "internalType": "address",
          "name": "to",
          "type": "address"
        }
      ],
      "name": "TransferExecuted",
      "type": "event"
    },
    {
      "stateMutability": "payable",
      "type": "fallback"
    },
    {
      "inputs": [
        {
          "components": [
            {
              "internalType": "address",
              "name": "to",
              "type": "address"
            },
            {
              "internalType": "uint256",
              "name": "value",
              "type": "uint256"
            },
            {
              "internalType": "bytes",
              "name": "data",
              "type": "bytes"
            }
          ],
          "internalType": "struct TransferContract.Transfer[]",
          "name": "transfers",
          "type": "tuple[]"
        },
        {
          "internalType": "uint8",
          "name": "v",
          "type": "uint8"
        },
        {
          "internalType": "bytes32",
          "name": "r",
          "type": "bytes32"
        },
        {
          "internalType": "bytes32",
          "name": "s",
          "type": "bytes32"
        }
      ],
      "name": "execute_batch_transfer",
      "outputs": [],
      "stateMutability": "nonpayable",
      "type": "function"
    },
    {
      "inputs": [],
      "name": "get_nonce",
      "outputs": [
        {
          "internalType": "uint256",
          "name": "",
          "type": "uint256"
        }
      ],
      "stateMutability": "view",
      "type": "function"
    },
    {
      "stateMutability": "payable",
      "type": "receive"
    }
  ],
  "bytecode": "0x608060405234801561001057600080fd5b50610db3806100206000396000f3fe60806040526004361061002d5760003560e01c8063141b5b4814610036578063ab0133801461006157610034565b3661003457005b005b34801561004257600080fd5b5061004b61008a565b604051610058919061056c565b60405180910390f35b34801561006d57600080fd5b5061008860048036038101906100839190610665565b610093565b005b60008054905090565b6000805486866040516020016100ab939291906109d5565b60405160208183030381529060405280519060200120905060006100d1828686866101aa565b90503073ffffffffffffffffffffffffffffffffffffffff168173ffffffffffffffffffffffffffffffffffffffff1614610141576040517f08c379a000000000000000000000000000000000000000000000000000000000815260040161013890610a64565b60405180910390fd5b60008081548092919061015390610ab3565b919050555060005b878790508110156101a05761019388888381811061017c5761017b610afb565b5b905060200281019061018e9190610b39565b6101da565b808060010191505061015b565b5050505050505050565b6000806000806101bc888888886102fb565b9250925092506101cc82826103ef565b829350505050949350505050565b60008160000160208101906101ef9190610b61565b73ffffffffffffffffffffffffffffffffffffffff16826020013583806040019061021a9190610b8e565b604051610228929190610c21565b60006040518083038185875af1925050503d8060008114610265576040519150601f19603f3d011682016040523d82523d6000602084013e61026a565b606091505b50509050806102ae576040517f08c379a00000000000000000000000000000000000000000000000000000000081526004016102a590610c86565b60405180910390fd5b7fc51a4c9955e7f8ddf6dbb1adb2075f1e98be020df5b7d4a35016b21769b4f9dc8260000160208101906102e29190610b61565b6040516102ef9190610cb5565b60405180910390a15050565b60008060007f7fffffffffffffffffffffffffffffff5d576e7357a4501ddfe92f46681b20a08460001c111561033b5760006003859250925092506103e5565b6000600188888888604051600081526020016040526040516103609493929190610cee565b6020604051602081039080840390855afa158015610382573d6000803e3d6000fd5b505050602060405103519050600073ffffffffffffffffffffffffffffffffffffffff168173ffffffffffffffffffffffffffffffffffffffff16036103d657600060016000801b935093509350506103e5565b8060008060001b935093509350505b9450945094915050565b6000600381111561040357610402610d33565b5b82600381111561041657610415610d33565b5b031561054f57600160038111156104305761042f610d33565b5b82600381111561044357610442610d33565b5b0361047a576040517ff645eedf00000000000000000000000000000000000000000000000000000000815260040160405180910390fd5b6002600381111561048e5761048d610d33565b5b8260038111156104a1576104a0610d33565b5b036104e6578060001c6040517ffce698f70000000000000000000000000000000000000000000000000000000081526004016104dd919061056c565b60405180910390fd5b6003808111156104f9576104f8610d33565b5b82600381111561050c5761050b610d33565b5b0361054e57806040517fd78bce0c0000000000000000000000000000000000000000000000000000000081526004016105459190610d62565b60405180910390fd5b5b5050565b6000819050919050565b61056681610553565b82525050565b6000602082019050610581600083018461055d565b92915050565b600080fd5b600080fd5b600080fd5b600080fd5b600080fd5b60008083601f8401126105b6576105b5610591565b5b8235905067ffffffffffffffff8111156105d3576105d2610596565b5b6020830191508360208202830111156105ef576105ee61059b565b5b9250929050565b600060ff82169050919050565b61060c816105f6565b811461061757600080fd5b50565b60008135905061062981610603565b92915050565b6000819050919050565b6106428161062f565b811461064d57600080fd5b50565b60008135905061065f81610639565b92915050565b60008060008060006080868803121561068157610680610587565b5b600086013567ffffffffffffffff81111561069f5761069e61058c565b5b6106ab888289016105a0565b955095505060206106be8882890161061a565b93505060406106cf88828901610650565b92505060606106e088828901610650565b9150509295509295909350565b600082825260208201905092915050565b6000819050919050565b600073ffffffffffffffffffffffffffffffffffffffff82169050919050565b600061073382610708565b9050919050565b61074381610728565b811461074e57600080fd5b50565b6000813590506107608161073a565b92915050565b60006107756020840184610751565b905092915050565b61078681610728565b82525050565b61079581610553565b81146107a057600080fd5b50565b6000813590506107b28161078c565b92915050565b60006107c760208401846107a3565b905092915050565b6107d881610553565b82525050565b600080fd5b600080fd5b600080fd5b6000808335600160200384360303811261080a576108096107e8565b5b83810192508235915060208301925067ffffffffffffffff821115610832576108316107de565b5b600182023603831315610848576108476107e3565b5b509250929050565b600082825260208201905092915050565b82818337600083830152505050565b6000601f19601f8301169050919050565b600061088d8385610850565b935061089a838584610861565b6108a383610870565b840190509392505050565b6000606083016108c16000840184610766565b6108ce600086018261077d565b506108dc60208401846107b8565b6108e960208601826107cf565b506108f760408401846107ed565b858303604087015261090a838284610881565b925050508091505092915050565b600061092483836108ae565b905092915050565b600082356001606003833603038112610948576109476107e8565b5b82810191505092915050565b6000602082019050919050565b600061096d83856106ed565b93508360208402850161097f846106fe565b8060005b878110156109c357848403895261099a828461092c565b6109a48582610918565b94506109af83610954565b925060208a01995050600181019050610983565b50829750879450505050509392505050565b60006040820190506109ea600083018661055d565b81810360208301526109fd818486610961565b9050949350505050565b600082825260208201905092915050565b7f496e76616c6964207369676e6174757265000000000000000000000000000000600082015250565b6000610a4e601183610a07565b9150610a5982610a18565b602082019050919050565b60006020820190508181036000830152610a7d81610a41565b9050919050565b7f4e487b7100000000000000000000000000000000000000000000000000000000600052601160045260246000fd5b6000610abe82610553565b91507fffffffffffffffffffffffffffffffffffffffffffffffffffffffffffffffff8203610af057610aef610a84565b5b600182019050919050565b7f4e487b7100000000000000000000000000000000000000000000000000000000600052603260045260246000fd5b600080fd5b600080fd5b600080fd5b600082356001606003833603038112610b5557610b54610b2a565b5b80830191505092915050565b600060208284031215610b7757610b76610587565b5b6000610b8584828501610751565b91505092915050565b60008083356001602003843603038112610bab57610baa610b2a565b5b80840192508235915067ffffffffffffffff821115610bcd57610bcc610b2f565b5b602083019250600182023603831315610be957610be8610b34565b5b509250929050565b600081905092915050565b6000610c088385610bf1565b9350610c15838584610861565b82840190509392505050565b6000610c2e828486610bfc565b91508190509392505050565b7f5472616e73666572207265766572746564000000000000000000000000000000600082015250565b6000610c70601183610a07565b9150610c7b82610c3a565b602082019050919050565b60006020820190508181036000830152610c9f81610c63565b9050919050565b610caf81610728565b82525050565b6000602082019050610cca6000830184610ca6565b92915050565b610cd98161062f565b82525050565b610ce8816105f6565b82525050565b6000608082019050610d036000830187610cd0565b610d106020830186610cdf565b610d1d6040830185610cd0565b610d2a6060830184610cd0565b95945050505050565b7f4e487b7100000000000000000000000000000000000000000000000000000000600052602160045260246000fd5b6000602082019050610d776000830184610cd0565b9291505056fea2646970667358221220c5ffb1f36e431551422fd9042751d05302839988788238d2df7c2a5a08afaacc64736f6c63430008180033",
  "linkReferences": {},
  "deployedLinkReferences": {}
}