{
  "_format": "hh-sol-artifact-1",
  "contractName": "TransferContract",
  "sourceName": "contracts/transfer.sol",
  "abi": [
    {
      "inputs": [],
      "name": "ECDSAInvalidSignature",
      "type": "error"
    },
    {
      "inputs": [
        {
          "internalType": "uint256",
          "name": "length",
          "type": "uint256"
        }
      ],
      "name": "ECDSAInvalidSignatureLength",
      "type": "error"
    },
    {
      "inputs": [
        {
          "internalType": "bytes32",
          "name": "s",
          "type": "bytes32"
        }
      ],
      "name": "ECDSAInvalidSignatureS",
      "type": "error"
    },
    {
      "anonymous": false,
      "inputs": [
        {
          "indexed": false,
          "internalType": "address",
          "name": "to",
          "type": "address"
        }
      ],
      "name": "TransferExecuted",
      "type": "event"
    },
    {
      "stateMutability": "payable",
      "type": "fallback"
    },
    {
      "inputs": [
        {
          "components": [
            {
              "internalType": "address",
              "name": "to",
              "type": "address"
            },
            {
              "internalType": "uint256",
              "name": "value",
              "type": "uint256"
            },
            {
              "internalType": "bytes",
              "name": "data",
              "type": "bytes"
            }
          ],
          "internalType": "struct TransferContract.Transfer[]",
          "name": "transfers",
          "type": "tuple[]"
        },
        {
          "internalType": "uint8",
          "name": "v",
          "type": "uint8"
        },
        {
          "internalType": "bytes32",
          "name": "r",
          "type": "bytes32"
        },
        {
          "internalType": "bytes32",
          "name": "s",
          "type": "bytes32"
        }
      ],
      "name": "execute_batch_transfer",
      "outputs": [],
      "stateMutability": "nonpayable",
      "type": "function"
    },
    {
      "inputs": [],
      "name": "get_nonce",
      "outputs": [
        {
          "internalType": "uint256",
          "name": "",
          "type": "uint256"
        }
      ],
      "stateMutability": "view",
      "type": "function"
    },
    {
      "stateMutability": "payable",
      "type": "receive"
    }
  ],
  "bytecode": "0x608060405234801561001057600080fd5b50610dca806100206000396000f3fe60806040526004361061002d5760003560e01c8063141b5b4814610036578063ab0133801461006157610034565b3661003457005b005b34801561004257600080fd5b5061004b61008a565b6040516100589190610575565b60405180910390f35b34801561006d57600080fd5b506100886004803603810190610083919061066e565b610093565b005b60008054905090565b600046905060008160005488886040516020016100b394939291906109de565b60405160208183030381529060405280519060200120905060006100d9828787876101b3565b90503073ffffffffffffffffffffffffffffffffffffffff168173ffffffffffffffffffffffffffffffffffffffff1614610149576040517f08c379a000000000000000000000000000000000000000000000000000000000815260040161014090610a7b565b60405180910390fd5b60008081548092919061015b90610aca565b919050555060005b888890508110156101a85761019b89898381811061018457610183610b12565b5b90506020028101906101969190610b50565b6101e3565b8080600101915050610163565b505050505050505050565b6000806000806101c588888888610304565b9250925092506101d582826103f8565b829350505050949350505050565b60008160000160208101906101f89190610b78565b73ffffffffffffffffffffffffffffffffffffffff1682602001358380604001906102239190610ba5565b604051610231929190610c38565b60006040518083038185875af1925050503d806000811461026e576040519150601f19603f3d011682016040523d82523d6000602084013e610273565b606091505b50509050806102b7576040517f08c379a00000000000000000000000000000000000000000000000000000000081526004016102ae90610c9d565b60405180910390fd5b7fc51a4c9955e7f8ddf6dbb1adb2075f1e98be020df5b7d4a35016b21769b4f9dc8260000160208101906102eb9190610b78565b6040516102f89190610ccc565b60405180910390a15050565b60008060007f7fffffffffffffffffffffffffffffff5d576e7357a4501ddfe92f46681b20a08460001c11156103445760006003859250925092506103ee565b6000600188888888604051600081526020016040526040516103699493929190610d05565b6020604051602081039080840390855afa15801561038b573d6000803e3d6000fd5b505050602060405103519050600073ffffffffffffffffffffffffffffffffffffffff168173ffffffffffffffffffffffffffffffffffffffff16036103df57600060016000801b935093509350506103ee565b8060008060001b935093509350505b9450945094915050565b6000600381111561040c5761040b610d4a565b5b82600381111561041f5761041e610d4a565b5b0315610558576001600381111561043957610438610d4a565b5b82600381111561044c5761044b610d4a565b5b03610483576040517ff645eedf00000000000000000000000000000000000000000000000000000000815260040160405180910390fd5b6002600381111561049757610496610d4a565b5b8260038111156104aa576104a9610d4a565b5b036104ef578060001c6040517ffce698f70000000000000000000000000000000000000000000000000000000081526004016104e69190610575565b60405180910390fd5b60038081111561050257610501610d4a565b5b82600381111561051557610514610d4a565b5b0361055757806040517fd78bce0c00000000000000000000000000000000000000000000000000000000815260040161054e9190610d79565b60405180910390fd5b5b5050565b6000819050919050565b61056f8161055c565b82525050565b600060208201905061058a6000830184610566565b92915050565b600080fd5b600080fd5b600080fd5b600080fd5b600080fd5b60008083601f8401126105bf576105be61059a565b5b8235905067ffffffffffffffff8111156105dc576105db61059f565b5b6020830191508360208202830111156105f8576105f76105a4565b5b9250929050565b600060ff82169050919050565b610615816105ff565b811461062057600080fd5b50565b6000813590506106328161060c565b92915050565b6000819050919050565b61064b81610638565b811461065657600080fd5b50565b60008135905061066881610642565b92915050565b60008060008060006080868803121561068a57610689610590565b5b600086013567ffffffffffffffff8111156106a8576106a7610595565b5b6106b4888289016105a9565b955095505060206106c788828901610623565b93505060406106d888828901610659565b92505060606106e988828901610659565b9150509295509295909350565b600082825260208201905092915050565b6000819050919050565b600073ffffffffffffffffffffffffffffffffffffffff82169050919050565b600061073c82610711565b9050919050565b61074c81610731565b811461075757600080fd5b50565b60008135905061076981610743565b92915050565b600061077e602084018461075a565b905092915050565b61078f81610731565b82525050565b61079e8161055c565b81146107a957600080fd5b50565b6000813590506107bb81610795565b92915050565b60006107d060208401846107ac565b905092915050565b6107e18161055c565b82525050565b600080fd5b600080fd5b600080fd5b60008083356001602003843603038112610813576108126107f1565b5b83810192508235915060208301925067ffffffffffffffff82111561083b5761083a6107e7565b5b600182023603831315610851576108506107ec565b5b509250929050565b600082825260208201905092915050565b82818337600083830152505050565b6000601f19601f8301169050919050565b60006108968385610859565b93506108a383858461086a565b6108ac83610879565b840190509392505050565b6000606083016108ca600084018461076f565b6108d76000860182610786565b506108e560208401846107c1565b6108f260208601826107d8565b5061090060408401846107f6565b858303604087015261091383828461088a565b925050508091505092915050565b600061092d83836108b7565b905092915050565b600082356001606003833603038112610951576109506107f1565b5b82810191505092915050565b6000602082019050919050565b600061097683856106f6565b93508360208402850161098884610707565b8060005b878110156109cc5784840389526109a38284610935565b6109ad8582610921565b94506109b88361095d565b925060208a0199505060018101905061098c565b50829750879450505050509392505050565b60006060820190506109f36000830187610566565b610a006020830186610566565b8181036040830152610a1381848661096a565b905095945050505050565b600082825260208201905092915050565b7f496e76616c6964207369676e6174757265000000000000000000000000000000600082015250565b6000610a65601183610a1e565b9150610a7082610a2f565b602082019050919050565b60006020820190508181036000830152610a9481610a58565b9050919050565b7f4e487b7100000000000000000000000000000000000000000000000000000000600052601160045260246000fd5b6000610ad58261055c565b91507fffffffffffffffffffffffffffffffffffffffffffffffffffffffffffffffff8203610b0757610b06610a9b565b5b600182019050919050565b7f4e487b7100000000000000000000000000000000000000000000000000000000600052603260045260246000fd5b600080fd5b600080fd5b600080fd5b600082356001606003833603038112610b6c57610b6b610b41565b5b80830191505092915050565b600060208284031215610b8e57610b8d610590565b5b6000610b9c8482850161075a565b91505092915050565b60008083356001602003843603038112610bc257610bc1610b41565b5b80840192508235915067ffffffffffffffff821115610be457610be3610b46565b5b602083019250600182023603831315610c0057610bff610b4b565b5b509250929050565b600081905092915050565b6000610c1f8385610c08565b9350610c2c83858461086a565b82840190509392505050565b6000610c45828486610c13565b91508190509392505050565b7f5472616e73666572207265766572746564000000000000000000000000000000600082015250565b6000610c87601183610a1e565b9150610c9282610c51565b602082019050919050565b60006020820190508181036000830152610cb681610c7a565b9050919050565b610cc681610731565b82525050565b6000602082019050610ce16000830184610cbd565b92915050565b610cf081610638565b82525050565b610cff816105ff565b82525050565b6000608082019050610d1a6000830187610ce7565b610d276020830186610cf6565b610d346040830185610ce7565b610d416060830184610ce7565b95945050505050565b7f4e487b7100000000000000000000000000000000000000000000000000000000600052602160045260246000fd5b6000602082019050610d8e6000830184610ce7565b9291505056fea26469706673582212209a83dd2422039f8dace22cca22aeba5def4c8bb566197dbe98895fba7f153db764736f6c63430008180033",
  "linkReferences": {},
  "deployedLinkReferences": {}
}