{
  "_format": "hh-sol-artifact-1",
  "contractName": "TransferContract",
  "sourceName": "contracts/transfer.sol",
  "abi": [
    {
      "inputs": [],
      "name": "ECDSAInvalidSignature",
      "type": "error"
    },
    {
      "inputs": [
        {
          "internalType": "uint256",
          "name": "length",
          "type": "uint256"
        }
      ],
      "name": "ECDSAInvalidSignatureLength",
      "type": "error"
    },
    {
      "inputs": [
        {
          "internalType": "bytes32",
          "name": "s",
          "type": "bytes32"
        }
      ],
      "name": "ECDSAInvalidSignatureS",
      "type": "error"
    },
    {
      "anonymous": false,
      "inputs": [
        {
          "indexed": false,
          "internalType": "address",
          "name": "to",
          "type": "address"
        }
      ],
      "name": "TransferExecuted",
      "type": "event"
    },
    {
      "stateMutability": "payable",
      "type": "fallback"
    },
    {
      "inputs": [
        {
          "components": [
            {
              "internalType": "address",
              "name": "to",
              "type": "address"
            },
            {
              "internalType": "uint256",
              "name": "value",
              "type": "uint256"
            },
            {
              "internalType": "bytes",
              "name": "data",
              "type": "bytes"
            }
          ],
          "internalType": "struct TransferContract.Transfer[]",
          "name": "transfers",
          "type": "tuple[]"
        },
        {
          "internalType": "uint8",
          "name": "v",
          "type": "uint8"
        },
        {
          "internalType": "bytes32",
          "name": "r",
          "type": "bytes32"
        },
        {
          "internalType": "bytes32",
          "name": "s",
          "type": "bytes32"
        }
      ],
      "name": "execute_batch_transfer",
      "outputs": [],
      "stateMutability": "nonpayable",
      "type": "function"
    },
    {
      "stateMutability": "payable",
      "type": "receive"
    }
  ],
  "bytecode": "0x608060405234801561001057600080fd5b50610cd5806100206000396000f3fe6080604052600436106100225760003560e01c8063ab0133801461002b57610029565b3661002957005b005b34801561003757600080fd5b50610052600480360381019061004d91906105d8565b610054565b005b60008585604051602001610069929190610952565b604051602081830303815290604052805190602001209050600061008f82868686610151565b90503073ffffffffffffffffffffffffffffffffffffffff168173ffffffffffffffffffffffffffffffffffffffff16146100ff576040517f08c379a00000000000000000000000000000000000000000000000000000000081526004016100f6906109d3565b60405180910390fd5b60005b878790508110156101475761013a888883818110610123576101226109f3565b5b90506020028101906101359190610a31565b610181565b8080600101915050610102565b5050505050505050565b600080600080610163888888886102a2565b9250925092506101738282610396565b829350505050949350505050565b60008160000160208101906101969190610a59565b73ffffffffffffffffffffffffffffffffffffffff1682602001358380604001906101c19190610a86565b6040516101cf929190610b19565b60006040518083038185875af1925050503d806000811461020c576040519150601f19603f3d011682016040523d82523d6000602084013e610211565b606091505b5050905080610255576040517f08c379a000000000000000000000000000000000000000000000000000000000815260040161024c90610b7e565b60405180910390fd5b7fc51a4c9955e7f8ddf6dbb1adb2075f1e98be020df5b7d4a35016b21769b4f9dc8260000160208101906102899190610a59565b6040516102969190610bad565b60405180910390a15050565b60008060007f7fffffffffffffffffffffffffffffff5d576e7357a4501ddfe92f46681b20a08460001c11156102e257600060038592509250925061038c565b6000600188888888604051600081526020016040526040516103079493929190610be6565b6020604051602081039080840390855afa158015610329573d6000803e3d6000fd5b505050602060405103519050600073ffffffffffffffffffffffffffffffffffffffff168173ffffffffffffffffffffffffffffffffffffffff160361037d57600060016000801b9350935093505061038c565b8060008060001b935093509350505b9450945094915050565b600060038111156103aa576103a9610c2b565b5b8260038111156103bd576103bc610c2b565b5b03156104f657600160038111156103d7576103d6610c2b565b5b8260038111156103ea576103e9610c2b565b5b03610421576040517ff645eedf00000000000000000000000000000000000000000000000000000000815260040160405180910390fd5b6002600381111561043557610434610c2b565b5b82600381111561044857610447610c2b565b5b0361048d578060001c6040517ffce698f70000000000000000000000000000000000000000000000000000000081526004016104849190610c69565b60405180910390fd5b6003808111156104a05761049f610c2b565b5b8260038111156104b3576104b2610c2b565b5b036104f557806040517fd78bce0c0000000000000000000000000000000000000000000000000000000081526004016104ec9190610c84565b60405180910390fd5b5b5050565b600080fd5b600080fd5b600080fd5b600080fd5b600080fd5b60008083601f84011261052957610528610504565b5b8235905067ffffffffffffffff81111561054657610545610509565b5b6020830191508360208202830111156105625761056161050e565b5b9250929050565b600060ff82169050919050565b61057f81610569565b811461058a57600080fd5b50565b60008135905061059c81610576565b92915050565b6000819050919050565b6105b5816105a2565b81146105c057600080fd5b50565b6000813590506105d2816105ac565b92915050565b6000806000806000608086880312156105f4576105f36104fa565b5b600086013567ffffffffffffffff811115610612576106116104ff565b5b61061e88828901610513565b955095505060206106318882890161058d565b9350506040610642888289016105c3565b9250506060610653888289016105c3565b9150509295509295909350565b600082825260208201905092915050565b6000819050919050565b600073ffffffffffffffffffffffffffffffffffffffff82169050919050565b60006106a68261067b565b9050919050565b6106b68161069b565b81146106c157600080fd5b50565b6000813590506106d3816106ad565b92915050565b60006106e860208401846106c4565b905092915050565b6106f98161069b565b82525050565b6000819050919050565b610712816106ff565b811461071d57600080fd5b50565b60008135905061072f81610709565b92915050565b60006107446020840184610720565b905092915050565b610755816106ff565b82525050565b600080fd5b600080fd5b600080fd5b6000808335600160200384360303811261078757610786610765565b5b83810192508235915060208301925067ffffffffffffffff8211156107af576107ae61075b565b5b6001820236038313156107c5576107c4610760565b5b509250929050565b600082825260208201905092915050565b82818337600083830152505050565b6000601f19601f8301169050919050565b600061080a83856107cd565b93506108178385846107de565b610820836107ed565b840190509392505050565b60006060830161083e60008401846106d9565b61084b60008601826106f0565b506108596020840184610735565b610866602086018261074c565b50610874604084018461076a565b85830360408701526108878382846107fe565b925050508091505092915050565b60006108a1838361082b565b905092915050565b6000823560016060038336030381126108c5576108c4610765565b5b82810191505092915050565b6000602082019050919050565b60006108ea8385610660565b9350836020840285016108fc84610671565b8060005b8781101561094057848403895261091782846108a9565b6109218582610895565b945061092c836108d1565b925060208a01995050600181019050610900565b50829750879450505050509392505050565b6000602082019050818103600083015261096d8184866108de565b90509392505050565b600082825260208201905092915050565b7f496e76616c6964207369676e6174757265000000000000000000000000000000600082015250565b60006109bd601183610976565b91506109c882610987565b602082019050919050565b600060208201905081810360008301526109ec816109b0565b9050919050565b7f4e487b7100000000000000000000000000000000000000000000000000000000600052603260045260246000fd5b600080fd5b600080fd5b600080fd5b600082356001606003833603038112610a4d57610a4c610a22565b5b80830191505092915050565b600060208284031215610a6f57610a6e6104fa565b5b6000610a7d848285016106c4565b91505092915050565b60008083356001602003843603038112610aa357610aa2610a22565b5b80840192508235915067ffffffffffffffff821115610ac557610ac4610a27565b5b602083019250600182023603831315610ae157610ae0610a2c565b5b509250929050565b600081905092915050565b6000610b008385610ae9565b9350610b0d8385846107de565b82840190509392505050565b6000610b26828486610af4565b91508190509392505050565b7f5472616e73666572207265766572746564000000000000000000000000000000600082015250565b6000610b68601183610976565b9150610b7382610b32565b602082019050919050565b60006020820190508181036000830152610b9781610b5b565b9050919050565b610ba78161069b565b82525050565b6000602082019050610bc26000830184610b9e565b92915050565b610bd1816105a2565b82525050565b610be081610569565b82525050565b6000608082019050610bfb6000830187610bc8565b610c086020830186610bd7565b610c156040830185610bc8565b610c226060830184610bc8565b95945050505050565b7f4e487b7100000000000000000000000000000000000000000000000000000000600052602160045260246000fd5b610c63816106ff565b82525050565b6000602082019050610c7e6000830184610c5a565b92915050565b6000602082019050610c996000830184610bc8565b9291505056fea26469706673582212208b367640bc98b75a1f6935a243ae71776535e4f52c568960be26ece5da014a7564736f6c63430008180033",
  "linkReferences": {},
  "deployedLinkReferences": {}
}