{
  "_format": "hh-sol-artifact-1",
  "contractName": "TransferContract",
  "sourceName": "contracts/transfer.sol",
  "abi": [
    {
      "inputs": [],
      "name": "ECDSAInvalidSignature",
      "type": "error"
    },
    {
      "inputs": [
        {
          "internalType": "uint256",
          "name": "length",
          "type": "uint256"
        }
      ],
      "name": "ECDSAInvalidSignatureLength",
      "type": "error"
    },
    {
      "inputs": [
        {
          "internalType": "bytes32",
          "name": "s",
          "type": "bytes32"
        }
      ],
      "name": "ECDSAInvalidSignatureS",
      "type": "error"
    },
    {
      "anonymous": false,
      "inputs": [
        {
          "indexed": false,
          "internalType": "address",
          "name": "to",
          "type": "address"
        }
      ],
      "name": "TransferExecuted",
      "type": "event"
    },
    {
      "stateMutability": "payable",
      "type": "fallback"
    },
    {
      "inputs": [
        {
          "components": [
            {
              "internalType": "address",
              "name": "to",
              "type": "address"
            },
            {
              "internalType": "uint256",
              "name": "value",
              "type": "uint256"
            },
            {
              "internalType": "bytes",
              "name": "data",
              "type": "bytes"
            }
          ],
          "internalType": "struct TransferContract.Transfer[]",
          "name": "transfers",
          "type": "tuple[]"
        },
        {
          "internalType": "uint8",
          "name": "v",
          "type": "uint8"
        },
        {
          "internalType": "bytes32",
          "name": "r",
          "type": "bytes32"
        },
        {
          "internalType": "bytes32",
          "name": "s",
          "type": "bytes32"
        }
      ],
      "name": "execute_batch_transfer",
      "outputs": [],
      "stateMutability": "nonpayable",
      "type": "function"
    },
    {
      "inputs": [],
      "name": "getNonce",
      "outputs": [
        {
          "internalType": "uint256",
          "name": "",
          "type": "uint256"
        }
      ],
      "stateMutability": "view",
      "type": "function"
    },
    {
      "stateMutability": "payable",
      "type": "receive"
    }
  ],
  "bytecode": "0x608060405234801561001057600080fd5b50610da2806100206000396000f3fe60806040526004361061002d5760003560e01c8063ab01338014610036578063d087d2881461005f57610034565b3661003457005b005b34801561004257600080fd5b5061005d6004803603810190610058919061062e565b61008a565b005b34801561006b57600080fd5b5061007461019e565b60405161008191906106cf565b60405180910390f35b6000858560405160200161009f9291906109d2565b60405160208183030381529060405280519060200120905060006100c5828686866101a7565b90503073ffffffffffffffffffffffffffffffffffffffff168173ffffffffffffffffffffffffffffffffffffffff1614610135576040517f08c379a000000000000000000000000000000000000000000000000000000000815260040161012c90610a53565b60405180910390fd5b60008081548092919061014790610aa2565b919050555060005b87879050811015610194576101878888838181106101705761016f610aea565b5b90506020028101906101829190610b28565b6101d7565b808060010191505061014f565b5050505050505050565b60008054905090565b6000806000806101b9888888886102f8565b9250925092506101c982826103ec565b829350505050949350505050565b60008160000160208101906101ec9190610b50565b73ffffffffffffffffffffffffffffffffffffffff1682602001358380604001906102179190610b7d565b604051610225929190610c10565b60006040518083038185875af1925050503d8060008114610262576040519150601f19603f3d011682016040523d82523d6000602084013e610267565b606091505b50509050806102ab576040517f08c379a00000000000000000000000000000000000000000000000000000000081526004016102a290610c75565b60405180910390fd5b7fc51a4c9955e7f8ddf6dbb1adb2075f1e98be020df5b7d4a35016b21769b4f9dc8260000160208101906102df9190610b50565b6040516102ec9190610ca4565b60405180910390a15050565b60008060007f7fffffffffffffffffffffffffffffff5d576e7357a4501ddfe92f46681b20a08460001c11156103385760006003859250925092506103e2565b60006001888888886040516000815260200160405260405161035d9493929190610cdd565b6020604051602081039080840390855afa15801561037f573d6000803e3d6000fd5b505050602060405103519050600073ffffffffffffffffffffffffffffffffffffffff168173ffffffffffffffffffffffffffffffffffffffff16036103d357600060016000801b935093509350506103e2565b8060008060001b935093509350505b9450945094915050565b60006003811115610400576103ff610d22565b5b82600381111561041357610412610d22565b5b031561054c576001600381111561042d5761042c610d22565b5b8260038111156104405761043f610d22565b5b03610477576040517ff645eedf00000000000000000000000000000000000000000000000000000000815260040160405180910390fd5b6002600381111561048b5761048a610d22565b5b82600381111561049e5761049d610d22565b5b036104e3578060001c6040517ffce698f70000000000000000000000000000000000000000000000000000000081526004016104da91906106cf565b60405180910390fd5b6003808111156104f6576104f5610d22565b5b82600381111561050957610508610d22565b5b0361054b57806040517fd78bce0c0000000000000000000000000000000000000000000000000000000081526004016105429190610d51565b60405180910390fd5b5b5050565b600080fd5b600080fd5b600080fd5b600080fd5b600080fd5b60008083601f84011261057f5761057e61055a565b5b8235905067ffffffffffffffff81111561059c5761059b61055f565b5b6020830191508360208202830111156105b8576105b7610564565b5b9250929050565b600060ff82169050919050565b6105d5816105bf565b81146105e057600080fd5b50565b6000813590506105f2816105cc565b92915050565b6000819050919050565b61060b816105f8565b811461061657600080fd5b50565b60008135905061062881610602565b92915050565b60008060008060006080868803121561064a57610649610550565b5b600086013567ffffffffffffffff81111561066857610667610555565b5b61067488828901610569565b95509550506020610687888289016105e3565b935050604061069888828901610619565b92505060606106a988828901610619565b9150509295509295909350565b6000819050919050565b6106c9816106b6565b82525050565b60006020820190506106e460008301846106c0565b92915050565b600082825260208201905092915050565b6000819050919050565b600073ffffffffffffffffffffffffffffffffffffffff82169050919050565b600061073082610705565b9050919050565b61074081610725565b811461074b57600080fd5b50565b60008135905061075d81610737565b92915050565b6000610772602084018461074e565b905092915050565b61078381610725565b82525050565b610792816106b6565b811461079d57600080fd5b50565b6000813590506107af81610789565b92915050565b60006107c460208401846107a0565b905092915050565b6107d5816106b6565b82525050565b600080fd5b600080fd5b600080fd5b60008083356001602003843603038112610807576108066107e5565b5b83810192508235915060208301925067ffffffffffffffff82111561082f5761082e6107db565b5b600182023603831315610845576108446107e0565b5b509250929050565b600082825260208201905092915050565b82818337600083830152505050565b6000601f19601f8301169050919050565b600061088a838561084d565b935061089783858461085e565b6108a08361086d565b840190509392505050565b6000606083016108be6000840184610763565b6108cb600086018261077a565b506108d960208401846107b5565b6108e660208601826107cc565b506108f460408401846107ea565b858303604087015261090783828461087e565b925050508091505092915050565b600061092183836108ab565b905092915050565b600082356001606003833603038112610945576109446107e5565b5b82810191505092915050565b6000602082019050919050565b600061096a83856106ea565b93508360208402850161097c846106fb565b8060005b878110156109c05784840389526109978284610929565b6109a18582610915565b94506109ac83610951565b925060208a01995050600181019050610980565b50829750879450505050509392505050565b600060208201905081810360008301526109ed81848661095e565b90509392505050565b600082825260208201905092915050565b7f496e76616c6964207369676e6174757265000000000000000000000000000000600082015250565b6000610a3d6011836109f6565b9150610a4882610a07565b602082019050919050565b60006020820190508181036000830152610a6c81610a30565b9050919050565b7f4e487b7100000000000000000000000000000000000000000000000000000000600052601160045260246000fd5b6000610aad826106b6565b91507fffffffffffffffffffffffffffffffffffffffffffffffffffffffffffffffff8203610adf57610ade610a73565b5b600182019050919050565b7f4e487b7100000000000000000000000000000000000000000000000000000000600052603260045260246000fd5b600080fd5b600080fd5b600080fd5b600082356001606003833603038112610b4457610b43610b19565b5b80830191505092915050565b600060208284031215610b6657610b65610550565b5b6000610b748482850161074e565b91505092915050565b60008083356001602003843603038112610b9a57610b99610b19565b5b80840192508235915067ffffffffffffffff821115610bbc57610bbb610b1e565b5b602083019250600182023603831315610bd857610bd7610b23565b5b509250929050565b600081905092915050565b6000610bf78385610be0565b9350610c0483858461085e565b82840190509392505050565b6000610c1d828486610beb565b91508190509392505050565b7f5472616e73666572207265766572746564000000000000000000000000000000600082015250565b6000610c5f6011836109f6565b9150610c6a82610c29565b602082019050919050565b60006020820190508181036000830152610c8e81610c52565b9050919050565b610c9e81610725565b82525050565b6000602082019050610cb96000830184610c95565b92915050565b610cc8816105f8565b82525050565b610cd7816105bf565b82525050565b6000608082019050610cf26000830187610cbf565b610cff6020830186610cce565b610d0c6040830185610cbf565b610d196060830184610cbf565b95945050505050565b7f4e487b7100000000000000000000000000000000000000000000000000000000600052602160045260246000fd5b6000602082019050610d666000830184610cbf565b9291505056fea2646970667358221220e6c63c1d1720b021eb7ab94d80accb0ad1a1e281b857a5ea56b95d4a272a56dc64736f6c63430008180033",
  "linkReferences": {},
  "deployedLinkReferences": {}
}