{
  "_format": "hh-sol-artifact-1",
  "contractName": "Caller",
  "sourceName": "contracts/caller.sol",
  "abi": [
    {
      "anonymous": false,
      "inputs": [
        {
          "indexed": true,
          "internalType": "uint256",
          "name": "nonce",
          "type": "uint256"
        },
        {
          "components": [
            {
              "internalType": "address",
              "name": "to",
              "type": "address"
            },
            {
              "internalType": "uint256",
              "name": "value",
              "type": "uint256"
            },
            {
              "internalType": "bytes",
              "name": "data",
              "type": "bytes"
            }
          ],
          "indexed": false,
          "internalType": "struct Caller.Call[]",
          "name": "calls",
          "type": "tuple[]"
        }
      ],
      "name": "BatchExecuted",
      "type": "event"
    },
    {
      "anonymous": false,
      "inputs": [
        {
          "indexed": true,
          "internalType": "address",
          "name": "sender",
          "type": "address"
        },
        {
          "indexed": true,
          "internalType": "address",
          "name": "to",
          "type": "address"
        },
        {
          "indexed": false,
          "internalType": "uint256",
          "name": "value",
          "type": "uint256"
        },
        {
          "indexed": false,
          "internalType": "bytes",
          "name": "data",
          "type": "bytes"
        }
      ],
      "name": "CallExecuted",
      "type": "event"
    },
    {
      "anonymous": false,
      "inputs": [],
      "name": "FunctionInvoked",
      "type": "event"
    },
    {
      "stateMutability": "payable",
      "type": "fallback"
    },
    {
      "inputs": [
        {
          "components": [
            {
              "internalType": "address",
              "name": "to",
              "type": "address"
            },
            {
              "internalType": "uint256",
              "name": "value",
              "type": "uint256"
            },
            {
              "internalType": "bytes",
              "name": "data",
              "type": "bytes"
            }
          ],
          "internalType": "struct Caller.Call[]",
          "name": "calls",
          "type": "tuple[]"
        }
      ],
      "name": "execute",
      "outputs": [],
      "stateMutability": "payable",
      "type": "function"
    },
    {
      "inputs": [],
      "name": "nonce",
      "outputs": [
        {
          "internalType": "uint256",
          "name": "",
          "type": "uint256"
        }
      ],
      "stateMutability": "view",
      "type": "function"
    },
    {
      "stateMutability": "payable",
      "type": "receive"
    }
  ],
  "bytecode": "0x608060405234801561001057600080fd5b50610962806100206000396000f3fe60806040526004361061002d5760003560e01c80633f707e6b14610036578063affed0e01461005257610034565b3661003457005b005b610050600480360381019061004b91906102fc565b61007d565b005b34801561005e57600080fd5b50610067610122565b6040516100749190610362565b60405180910390f35b600080549050600080815480929190610095906103ac565b919050555060005b838390508110156100e2576100d58484838181106100be576100bd6103f4565b5b90506020028101906100d09190610432565b610128565b808060010191505061009d565b50807f280bb3599696acbf79fb8ffcde81a57337b52500f789600fbb1cff9b4cbaba398484604051610115929190610742565b60405180910390a2505050565b60005481565b600081600001602081019061013d9190610766565b73ffffffffffffffffffffffffffffffffffffffff1682602001358380604001906101689190610793565b604051610176929190610826565b60006040518083038185875af1925050503d80600081146101b3576040519150601f19603f3d011682016040523d82523d6000602084013e6101b8565b606091505b50509050806101fc576040517f08c379a00000000000000000000000000000000000000000000000000000000081526004016101f39061089c565b60405180910390fd5b81600001602081019061020f9190610766565b73ffffffffffffffffffffffffffffffffffffffff163373ffffffffffffffffffffffffffffffffffffffff167fed7e8f919df9cc0d0ad8b4057d084ebf319b630564d5da283e14751adc931f3a84602001358580604001906102729190610793565b604051610281939291906108fa565b60405180910390a35050565b600080fd5b600080fd5b600080fd5b600080fd5b600080fd5b60008083601f8401126102bc576102bb610297565b5b8235905067ffffffffffffffff8111156102d9576102d861029c565b5b6020830191508360208202830111156102f5576102f46102a1565b5b9250929050565b600080602083850312156103135761031261028d565b5b600083013567ffffffffffffffff81111561033157610330610292565b5b61033d858286016102a6565b92509250509250929050565b6000819050919050565b61035c81610349565b82525050565b60006020820190506103776000830184610353565b92915050565b7f4e487b7100000000000000000000000000000000000000000000000000000000600052601160045260246000fd5b60006103b782610349565b91507fffffffffffffffffffffffffffffffffffffffffffffffffffffffffffffffff82036103e9576103e861037d565b5b600182019050919050565b7f4e487b7100000000000000000000000000000000000000000000000000000000600052603260045260246000fd5b600080fd5b600080fd5b600080fd5b60008235600160600383360303811261044e5761044d610423565b5b80830191505092915050565b600082825260208201905092915050565b6000819050919050565b600073ffffffffffffffffffffffffffffffffffffffff82169050919050565b60006104a082610475565b9050919050565b6104b081610495565b81146104bb57600080fd5b50565b6000813590506104cd816104a7565b92915050565b60006104e260208401846104be565b905092915050565b6104f381610495565b82525050565b61050281610349565b811461050d57600080fd5b50565b60008135905061051f816104f9565b92915050565b60006105346020840184610510565b905092915050565b61054581610349565b82525050565b600080fd5b600080fd5b600080fd5b6000808335600160200384360303811261057757610576610555565b5b83810192508235915060208301925067ffffffffffffffff82111561059f5761059e61054b565b5b6001820236038313156105b5576105b4610550565b5b509250929050565b600082825260208201905092915050565b82818337600083830152505050565b6000601f19601f8301169050919050565b60006105fa83856105bd565b93506106078385846105ce565b610610836105dd565b840190509392505050565b60006060830161062e60008401846104d3565b61063b60008601826104ea565b506106496020840184610525565b610656602086018261053c565b50610664604084018461055a565b85830360408701526106778382846105ee565b925050508091505092915050565b6000610691838361061b565b905092915050565b6000823560016060038336030381126106b5576106b4610555565b5b82810191505092915050565b6000602082019050919050565b60006106da838561045a565b9350836020840285016106ec8461046b565b8060005b878110156107305784840389526107078284610699565b6107118582610685565b945061071c836106c1565b925060208a019950506001810190506106f0565b50829750879450505050509392505050565b6000602082019050818103600083015261075d8184866106ce565b90509392505050565b60006020828403121561077c5761077b61028d565b5b600061078a848285016104be565b91505092915050565b600080833560016020038436030381126107b0576107af610423565b5b80840192508235915067ffffffffffffffff8211156107d2576107d1610428565b5b6020830192506001820236038313156107ee576107ed61042d565b5b509250929050565b600081905092915050565b600061080d83856107f6565b935061081a8385846105ce565b82840190509392505050565b6000610833828486610801565b91508190509392505050565b600082825260208201905092915050565b7f43616c6c20726576657274656400000000000000000000000000000000000000600082015250565b6000610886600d8361083f565b915061089182610850565b602082019050919050565b600060208201905081810360008301526108b581610879565b9050919050565b600082825260208201905092915050565b60006108d983856108bc565b93506108e68385846105ce565b6108ef836105dd565b840190509392505050565b600060408201905061090f6000830186610353565b81810360208301526109228184866108cd565b905094935050505056fea2646970667358221220e6209d9c0b226c34c7151df012d2084ea3c0534e131043419575b775d427ba4664736f6c63430008180033",
  "linkReferences": {},
  "deployedLinkReferences": {}
}